{"contracts/Lottery.sol":{"LotteryGame":{"abi":[{"inputs":[{"internalType":"address","name":"vrfCoordinator","type":"address"},{"internalType":"address","name":"link","type":"address"},{"internalType":"bytes32","name":"_keyhash","type":"bytes32"},{"internalType":"uint256","name":"_fee","type":"uint256"}],"stateMutability":"nonpayable","type":"constructor"},{"anonymous":false,"inputs":[{"indexed":false,"internalType":"uint256","name":"","type":"uint256"},{"indexed":false,"internalType":"uint256","name":"","type":"uint256"},{"indexed":false,"internalType":"uint256","name":"","type":"uint256"},{"indexed":false,"internalType":"uint256","name":"","type":"uint256"}],"name":"LotteryCreated","type":"event"},{"anonymous":false,"inputs":[{"indexed":false,"internalType":"uint256","name":"","type":"uint256"},{"indexed":false,"internalType":"uint256","name":"","type":"uint256"}],"name":"PrizeIncreased","type":"event"},{"anonymous":false,"inputs":[{"indexed":false,"internalType":"bytes32","name":"","type":"bytes32"},{"indexed":false,"internalType":"uint256","name":"","type":"uint256"}],"name":"RandomnessRequested","type":"event"},{"anonymous":false,"inputs":[{"indexed":false,"internalType":"bytes32","name":"","type":"bytes32"},{"indexed":false,"internalType":"uint256","name":"","type":"uint256"},{"indexed":false,"internalType":"address","name":"","type":"address"}],"name":"WinnerDeclared","type":"event"},{"inputs":[{"internalType":"uint256","name":"_ticketPrice","type":"uint256"},{"internalType":"uint256","name":"_seconds","type":"uint256"}],"name":"createLottery","outputs":[],"stateMutability":"payable","type":"function"},{"inputs":[{"internalType":"uint256","name":"_lotteryId","type":"uint256"}],"name":"declareWinner","outputs":[],"stateMutability":"nonpayable","type":"function"},{"inputs":[{"internalType":"uint256","name":"_lotteryId","type":"uint256"}],"name":"getLottery","outputs":[{"components":[{"internalType":"uint256","name":"lotteryId","type":"uint256"},{"internalType":"address[]","name":"participants","type":"address[]"},{"internalType":"uint256","name":"ticketPrice","type":"uint256"},{"internalType":"uint256","name":"prize","type":"uint256"},{"internalType":"address","name":"winner","type":"address"},{"internalType":"bool","name":"isFinished","type":"bool"},{"internalType":"uint256","name":"endDate","type":"uint256"}],"internalType":"struct LotteryGame.Lottery","name":"","type":"tuple"}],"stateMutability":"view","type":"function"},{"inputs":[],"name":"getLotteryCount","outputs":[{"internalType":"uint256","name":"","type":"uint256"}],"stateMutability":"view","type":"function"},{"inputs":[{"internalType":"uint256","name":"_lotteryId","type":"uint256"}],"name":"participate","outputs":[],"stateMutability":"payable","type":"function"},{"inputs":[{"internalType":"bytes32","name":"requestId","type":"bytes32"},{"internalType":"uint256","name":"randomness","type":"uint256"}],"name":"rawFulfillRandomness","outputs":[],"stateMutability":"nonpayable","type":"function"}],"devdoc":{"kind":"dev","methods":{},"version":1},"evm":{"bytecode":{"linkReferences":{},"object":"60c06040523480156200001157600080fd5b506040516200226d3803806200226d833981810160405281019062000037919062000147565b83838173ffffffffffffffffffffffffffffffffffffffff1660a08173ffffffffffffffffffffffffffffffffffffffff1660601b815250508073ffffffffffffffffffffffffffffffffffffffff1660808173ffffffffffffffffffffffffffffffffffffffff1660601b815250505050816006819055508060078190555033600860006101000a81548173ffffffffffffffffffffffffffffffffffffffff021916908373ffffffffffffffffffffffffffffffffffffffff1602179055505050505062000254565b600081519050620001138162000206565b92915050565b6000815190506200012a8162000220565b92915050565b60008151905062000141816200023a565b92915050565b6000806000806080858703121562000164576200016362000201565b5b6000620001748782880162000102565b9450506020620001878782880162000102565b93505060406200019a8782880162000119565b9250506060620001ad8782880162000130565b91505092959194509250565b6000620001c682620001d7565b9050919050565b6000819050919050565b600073ffffffffffffffffffffffffffffffffffffffff82169050919050565b6000819050919050565b600080fd5b6200021181620001b9565b81146200021d57600080fd5b50565b6200022b81620001cd565b81146200023757600080fd5b50565b6200024581620001f7565b81146200025157600080fd5b50565b60805160601c60a05160601c611fdf6200028e600039600081816109e60152610d760152600081816104d70152610d3a0152611fdf6000f3fe6080604052600436106100545760003560e01c8062c2943c146100595780632f9aa1fe14610082578063845c9306146100ad57806392e845f6146100c957806394985ddd14610106578063fe35804e1461012f575b600080fd5b34801561006557600080fd5b50610080600480360381019061007b9190611311565b61014b565b005b34801561008e57600080fd5b50610097610628565b6040516100a491906119a0565b60405180910390f35b6100c760048036038101906100c29190611311565b610639565b005b3480156100d557600080fd5b506100f060048036038101906100eb9190611311565b610890565b6040516100fd919061197e565b60405180910390f35b34801561011257600080fd5b5061012d600480360381019061012891906112d1565b6109e4565b005b6101496004803603810190610144919061136b565b610a80565b005b600860009054906101000a900473ffffffffffffffffffffffffffffffffffffffff1673ffffffffffffffffffffffffffffffffffffffff163373ffffffffffffffffffffffffffffffffffffffff16146101db576040517f08c379a00000000000000000000000000000000000000000000000000000000081526004016101d29061195e565b60405180910390fd5b600060026000838152602001908152602001600020905080600501544211610238576040517f08c379a000000000000000000000000000000000000000000000000000000000815260040161022f906118de565b60405180910390fd5b8060040160149054906101000a900460ff161561028a576040517f08c379a00000000000000000000000000000000000000000000000000000000081526004016102819061183e565b60405180910390fd5b6001600560008481526020019081526020016000205414156104d257600073ffffffffffffffffffffffffffffffffffffffff16816001016000815481106102d5576102d4611cbb565b5b9060005260206000200160009054906101000a900473ffffffffffffffffffffffffffffffffffffffff1673ffffffffffffffffffffffffffffffffffffffff161415610357576040517f08c379a000000000000000000000000000000000000000000000000000000000815260040161034e9061189e565b60405180910390fd5b8060010160008154811061036e5761036d611cbb565b5b9060005260206000200160009054906101000a900473ffffffffffffffffffffffffffffffffffffffff168160040160006101000a81548173ffffffffffffffffffffffffffffffffffffffff021916908373ffffffffffffffffffffffffffffffffffffffff16021790555060018160040160146101000a81548160ff02191690831515021790555060008160040160009054906101000a900473ffffffffffffffffffffffffffffffffffffffff1673ffffffffffffffffffffffffffffffffffffffff1682600301546040516104469061172b565b60006040518083038185875af1925050503d8060008114610483576040519150601f19603f3d011682016040523d82523d6000602084013e610488565b606091505b50509050806104cc576040517f08c379a00000000000000000000000000000000000000000000000000000000081526004016104c39061185e565b60405180910390fd5b50610624565b6007547f000000000000000000000000000000000000000000000000000000000000000073ffffffffffffffffffffffffffffffffffffffff166370a08231306040518263ffffffff1660e01b815260040161052e9190611740565b60206040518083038186803b15801561054657600080fd5b505afa15801561055a573d6000803e3d6000fd5b505050506040513d601f19601f8201168201806040525081019061057e919061133e565b10156105bf576040517f08c379a00000000000000000000000000000000000000000000000000000000081526004016105b6906118be565b60405180910390fd5b60006105cf600654600754610d36565b90508260036000838152602001908152602001600020819055507f49cdaa45e000eb9a419ae3b028f7f7bec2179153ebe33293f312866428421326818460405161061a929190611799565b60405180910390a1505b5050565b60006106346001610e95565b905090565b600060026000838152602001908152602001600020905080600501544210610696576040517f08c379a000000000000000000000000000000000000000000000000000000000815260040161068d9061191e565b60405180910390fd5b348160020154146106dc576040517f08c379a00000000000000000000000000000000000000000000000000000000081526004016106d3906118fe565b60405180910390fd5b80600101339080600181540180825580915050600190039060005260206000200160009091909190916101000a81548173ffffffffffffffffffffffffffffffffffffffff021916908373ffffffffffffffffffffffffffffffffffffffff160217905550348160030160008282546107559190611a9a565b9250508190555060006004600084815260200190815260200160002060003373ffffffffffffffffffffffffffffffffffffffff1673ffffffffffffffffffffffffffffffffffffffff16815260200190815260200160002054905060008114156107e4576005600084815260200190815260200160002060008154809291906107de90611bcf565b91905055505b6004600084815260200190815260200160002060003373ffffffffffffffffffffffffffffffffffffffff1673ffffffffffffffffffffffffffffffffffffffff168152602001908152602001600020600081548092919061084590611bcf565b91905055507f3460c8d6fb8c7c026376232c36402d8f009c3bacafe6ff1f69dfce59fa9c0967826000015483600301546040516108839291906119bb565b60405180910390a1505050565b610898611154565b600260008381526020019081526020016000206040518060e0016040529081600082015481526020016001820180548060200260200160405190810160405280929190818152602001828054801561094557602002820191906000526020600020905b8160009054906101000a900473ffffffffffffffffffffffffffffffffffffffff1673ffffffffffffffffffffffffffffffffffffffff16815260200190600101908083116108fb575b5050505050815260200160028201548152602001600382015481526020016004820160009054906101000a900473ffffffffffffffffffffffffffffffffffffffff1673ffffffffffffffffffffffffffffffffffffffff1673ffffffffffffffffffffffffffffffffffffffff1681526020016004820160149054906101000a900460ff161515151581526020016005820154815250509050919050565b7f000000000000000000000000000000000000000000000000000000000000000073ffffffffffffffffffffffffffffffffffffffff163373ffffffffffffffffffffffffffffffffffffffff1614610a72576040517f08c379a0000000000000000000000000000000000000000000000000000000008152600401610a699061193e565b60405180910390fd5b610a7c8282610ea3565b5050565b600860009054906101000a900473ffffffffffffffffffffffffffffffffffffffff1673ffffffffffffffffffffffffffffffffffffffff163373ffffffffffffffffffffffffffffffffffffffff1614610b10576040517f08c379a0000000000000000000000000000000000000000000000000000000008152600401610b079061195e565b60405180910390fd5b60008211610b53576040517f08c379a0000000000000000000000000000000000000000000000000000000008152600401610b4a9061187e565b60405180910390fd5b60006040518060e00160405280610b6a6001610e95565b8152602001600067ffffffffffffffff811115610b8a57610b89611cea565b5b604051908082528060200260200182016040528015610bb85781602001602082028036833780820191505090505b50815260200184815260200160008152602001600073ffffffffffffffffffffffffffffffffffffffff168152602001600015158152602001600184610bfe9190611af0565b42610c099190611a9a565b81525090508060026000610c1d6001610e95565b8152602001908152602001600020600082015181600001556020820151816001019080519060200190610c519291906111a9565b50604082015181600201556060820151816003015560808201518160040160006101000a81548173ffffffffffffffffffffffffffffffffffffffff021916908373ffffffffffffffffffffffffffffffffffffffff16021790555060a08201518160040160146101000a81548160ff02191690831515021790555060c08201518160050155905050610ce460016110b9565b7f68b3cc7239912b7f66b9e2f9d93955382d1082297c9e6347beb37217f081650e8160000151826040015183606001518460c00151604051610d2994939291906119e4565b60405180910390a1505050565b60007f000000000000000000000000000000000000000000000000000000000000000073ffffffffffffffffffffffffffffffffffffffff16634000aea07f000000000000000000000000000000000000000000000000000000000000000084866000604051602001610daa929190611799565b6040516020818303038152906040526040518463ffffffff1660e01b8152600401610dd79392919061175b565b602060405180830381600087803b158015610df157600080fd5b505af1158015610e05573d6000803e3d6000fd5b505050506040513d601f19601f82011682018060405250810190610e2991906112a4565b506000610e4b84600030600080898152602001908152602001600020546110cf565b9050600160008086815260200190815260200160002054610e6c9190611a9a565b60008086815260200190815260200160002081905550610e8c848261110b565b91505092915050565b600081600001549050919050565b60006003600084815260200190815260200160002054905060006002600083815260200190815260200160002090506000610eee82600101805490508561113e90919063ffffffff16565b905060018260040160146101000a81548160ff021916908315150217905550816001018181548110610f2357610f22611cbb565b5b9060005260206000200160009054906101000a900473ffffffffffffffffffffffffffffffffffffffff168260040160006101000a81548173ffffffffffffffffffffffffffffffffffffffff021916908373ffffffffffffffffffffffffffffffffffffffff160217905550600360008681526020019081526020016000206000905560056000848152602001908152602001600020600090558160040160009054906101000a900473ffffffffffffffffffffffffffffffffffffffff1673ffffffffffffffffffffffffffffffffffffffff16826003015460405161100a9061172b565b60006040518083038185875af1925050503d8060008114611047576040519150601f19603f3d011682016040523d82523d6000602084013e61104c565b606091505b5050507fde0c090c9d4a201b2d76010af69467e968ab380b646781fa3c78ec193892a1f98583600001548460040160009054906101000a900473ffffffffffffffffffffffffffffffffffffffff166040516110aa939291906117c2565b60405180910390a15050505050565b6001816000016000828254019250508190555050565b6000848484846040516020016110e894939291906117f9565b6040516020818303038152906040528051906020012060001c9050949350505050565b600082826040516020016111209291906116ff565b60405160208183030381529060405280519060200120905092915050565b6000818361114c9190611c2c565b905092915050565b6040518060e0016040528060008152602001606081526020016000815260200160008152602001600073ffffffffffffffffffffffffffffffffffffffff168152602001600015158152602001600081525090565b828054828255906000526020600020908101928215611222579160200282015b828111156112215782518260006101000a81548173ffffffffffffffffffffffffffffffffffffffff021916908373ffffffffffffffffffffffffffffffffffffffff160217905550916020019190600101906111c9565b5b50905061122f9190611233565b5090565b5b8082111561124c576000816000905550600101611234565b5090565b60008151905061125f81611f64565b92915050565b60008135905061127481611f7b565b92915050565b60008135905061128981611f92565b92915050565b60008151905061129e81611f92565b92915050565b6000602082840312156112ba576112b9611d19565b5b60006112c884828501611250565b91505092915050565b600080604083850312156112e8576112e7611d19565b5b60006112f685828601611265565b92505060206113078582860161127a565b9150509250929050565b60006020828403121561132757611326611d19565b5b60006113358482850161127a565b91505092915050565b60006020828403121561135457611353611d19565b5b60006113628482850161128f565b91505092915050565b6000806040838503121561138257611381611d19565b5b60006113908582860161127a565b92505060206113a18582860161127a565b9150509250929050565b60006113b783836113c3565b60208301905092915050565b6113cc81611b4a565b82525050565b6113db81611b4a565b82525050565b60006113ec82611a39565b6113f68185611a5c565b935061140183611a29565b8060005b8381101561143257815161141988826113ab565b975061142483611a4f565b925050600181019050611405565b5085935050505092915050565b61144881611b5c565b82525050565b61145781611b68565b82525050565b61146e61146982611b68565b611c18565b82525050565b600061147f82611a44565b6114898185611a6d565b9350611499818560208601611b9c565b6114a281611d1e565b840191505092915050565b60006114ba602583611a89565b91506114c582611d2f565b604082019050919050565b60006114dd600f83611a89565b91506114e882611d7e565b602082019050919050565b6000611500601c83611a89565b915061150b82611da7565b602082019050919050565b6000611523602f83611a89565b915061152e82611dd0565b604082019050919050565b6000611546600f83611a89565b915061155182611e1f565b602082019050919050565b6000611569601783611a89565b915061157482611e48565b602082019050919050565b600061158c602383611a89565b915061159782611e71565b604082019050919050565b60006115af601f83611a89565b91506115ba82611ec0565b602082019050919050565b60006115d2601f83611a89565b91506115dd82611ee9565b602082019050919050565b60006115f5600083611a7e565b915061160082611f12565b600082019050919050565b6000611618602183611a89565b915061162382611f15565b604082019050919050565b600060e08301600083015161164660008601826116ca565b506020830151848203602086015261165e82826113e1565b915050604083015161167360408601826116ca565b50606083015161168660608601826116ca565b50608083015161169960808601826113c3565b5060a08301516116ac60a086018261143f565b5060c08301516116bf60c08601826116ca565b508091505092915050565b6116d381611b92565b82525050565b6116e281611b92565b82525050565b6116f96116f482611b92565b611c22565b82525050565b600061170b828561145d565b60208201915061171b82846116e8565b6020820191508190509392505050565b6000611736826115e8565b9150819050919050565b600060208201905061175560008301846113d2565b92915050565b600060608201905061177060008301866113d2565b61177d60208301856116d9565b818103604083015261178f8184611474565b9050949350505050565b60006040820190506117ae600083018561144e565b6117bb60208301846116d9565b9392505050565b60006060820190506117d7600083018661144e565b6117e460208301856116d9565b6117f160408301846113d2565b949350505050565b600060808201905061180e600083018761144e565b61181b60208301866116d9565b61182860408301856113d2565b61183560608301846116d9565b95945050505050565b60006020820190508181036000830152611857816114ad565b9050919050565b60006020820190508181036000830152611877816114d0565b9050919050565b60006020820190508181036000830152611897816114f3565b9050919050565b600060208201905081810360008301526118b781611516565b9050919050565b600060208201905081810360008301526118d781611539565b9050919050565b600060208201905081810360008301526118f78161155c565b9050919050565b600060208201905081810360008301526119178161157f565b9050919050565b60006020820190508181036000830152611937816115a2565b9050919050565b60006020820190508181036000830152611957816115c5565b9050919050565b600060208201905081810360008301526119778161160b565b9050919050565b60006020820190508181036000830152611998818461162e565b905092915050565b60006020820190506119b560008301846116d9565b92915050565b60006040820190506119d060008301856116d9565b6119dd60208301846116d9565b9392505050565b60006080820190506119f960008301876116d9565b611a0660208301866116d9565b611a1360408301856116d9565b611a2060608301846116d9565b95945050505050565b6000819050602082019050919050565b600081519050919050565b600081519050919050565b6000602082019050919050565b600082825260208201905092915050565b600082825260208201905092915050565b600081905092915050565b600082825260208201905092915050565b6000611aa582611b92565b9150611ab083611b92565b9250827fffffffffffffffffffffffffffffffffffffffffffffffffffffffffffffffff03821115611ae557611ae4611c5d565b5b828201905092915050565b6000611afb82611b92565b9150611b0683611b92565b9250817fffffffffffffffffffffffffffffffffffffffffffffffffffffffffffffffff0483118215151615611b3f57611b3e611c5d565b5b828202905092915050565b6000611b5582611b72565b9050919050565b60008115159050919050565b6000819050919050565b600073ffffffffffffffffffffffffffffffffffffffff82169050919050565b6000819050919050565b60005b83811015611bba578082015181840152602081019050611b9f565b83811115611bc9576000848401525b50505050565b6000611bda82611b92565b91507fffffffffffffffffffffffffffffffffffffffffffffffffffffffffffffffff821415611c0d57611c0c611c5d565b5b600182019050919050565b6000819050919050565b6000819050919050565b6000611c3782611b92565b9150611c4283611b92565b925082611c5257611c51611c8c565b5b828206905092915050565b7f4e487b7100000000000000000000000000000000000000000000000000000000600052601160045260246000fd5b7f4e487b7100000000000000000000000000000000000000000000000000000000600052601260045260246000fd5b7f4e487b7100000000000000000000000000000000000000000000000000000000600052603260045260246000fd5b7f4e487b7100000000000000000000000000000000000000000000000000000000600052604160045260246000fd5b600080fd5b6000601f19601f8301169050919050565b7f4c6f74746572792068617320616c7265616479206465636c617265642061207760008201527f696e6e6572000000000000000000000000000000000000000000000000000000602082015250565b7f5472616e73666572206661696c65640000000000000000000000000000000000600082015250565b7f56616c7565206d7573742062652067726561746572207468616e203000000000600082015250565b7f546865726520686173206265656e206e6f2070617274696369706174696f6e2060008201527f696e2074686973206c6f74746572790000000000000000000000000000000000602082015250565b7f4e6f7420656e6f756768204c494e4b0000000000000000000000000000000000600082015250565b7f4c6f7474657279206973207374696c6c20616374697665000000000000000000600082015250565b7f56616c7565206d75737420626520657175616c20746f207469636b657420707260008201527f6963650000000000000000000000000000000000000000000000000000000000602082015250565b7f4c6f74746572792070617274696369706174696f6e20697320636c6f73656400600082015250565b7f4f6e6c7920565246436f6f7264696e61746f722063616e2066756c66696c6c00600082015250565b50565b7f4f6e6c792061646d696e2063616e2063616c6c20746869732066756e6374696f60008201527f6e00000000000000000000000000000000000000000000000000000000000000602082015250565b611f6d81611b5c565b8114611f7857600080fd5b50565b611f8481611b68565b8114611f8f57600080fd5b50565b611f9b81611b92565b8114611fa657600080fd5b5056fea2646970667358221220f78e35fd58db19ca80baca62a46992d133b4642a0999a8d06ab45852cf507a1564736f6c63430008070033","opcodes":"PUSH1 0xC0 PUSH1 0x40 MSTORE CALLVALUE DUP1 ISZERO PUSH3 0x11 JUMPI PUSH1 0x0 DUP1 REVERT JUMPDEST POP PUSH1 0x40 MLOAD PUSH3 0x226D CODESIZE SUB DUP1 PUSH3 0x226D DUP4 CODECOPY DUP2 DUP2 ADD PUSH1 0x40 MSTORE DUP2 ADD SWAP1 PUSH3 0x37 SWAP2 SWAP1 PUSH3 0x147 JUMP JUMPDEST DUP4 DUP4 DUP2 PUSH20 0xFFFFFFFFFFFFFFFFFFFFFFFFFFFFFFFFFFFFFFFF AND PUSH1 0xA0 DUP2 PUSH20 0xFFFFFFFFFFFFFFFFFFFFFFFFFFFFFFFFFFFFFFFF AND PUSH1 0x60 SHL DUP2 MSTORE POP POP DUP1 PUSH20 0xFFFFFFFFFFFFFFFFFFFFFFFFFFFFFFFFFFFFFFFF AND PUSH1 0x80 DUP2 PUSH20 0xFFFFFFFFFFFFFFFFFFFFFFFFFFFFFFFFFFFFFFFF AND PUSH1 0x60 SHL DUP2 MSTORE POP POP POP POP DUP2 PUSH1 0x6 DUP2 SWAP1 SSTORE POP DUP1 PUSH1 0x7 DUP2 SWAP1 SSTORE POP CALLER PUSH1 0x8 PUSH1 0x0 PUSH2 0x100 EXP DUP2 SLOAD DUP2 PUSH20 0xFFFFFFFFFFFFFFFFFFFFFFFFFFFFFFFFFFFFFFFF MUL NOT AND SWAP1 DUP4 PUSH20 0xFFFFFFFFFFFFFFFFFFFFFFFFFFFFFFFFFFFFFFFF AND MUL OR SWAP1 SSTORE POP POP POP POP POP PUSH3 0x254 JUMP JUMPDEST PUSH1 0x0 DUP2 MLOAD SWAP1 POP PUSH3 0x113 DUP2 PUSH3 0x206 JUMP JUMPDEST SWAP3 SWAP2 POP POP JUMP JUMPDEST PUSH1 0x0 DUP2 MLOAD SWAP1 POP PUSH3 0x12A DUP2 PUSH3 0x220 JUMP JUMPDEST SWAP3 SWAP2 POP POP JUMP JUMPDEST PUSH1 0x0 DUP2 MLOAD SWAP1 POP PUSH3 0x141 DUP2 PUSH3 0x23A JUMP JUMPDEST SWAP3 SWAP2 POP POP JUMP JUMPDEST PUSH1 0x0 DUP1 PUSH1 0x0 DUP1 PUSH1 0x80 DUP6 DUP8 SUB SLT ISZERO PUSH3 0x164 JUMPI PUSH3 0x163 PUSH3 0x201 JUMP JUMPDEST JUMPDEST PUSH1 0x0 PUSH3 0x174 DUP8 DUP3 DUP9 ADD PUSH3 0x102 JUMP JUMPDEST SWAP5 POP POP PUSH1 0x20 PUSH3 0x187 DUP8 DUP3 DUP9 ADD PUSH3 0x102 JUMP JUMPDEST SWAP4 POP POP PUSH1 0x40 PUSH3 0x19A DUP8 DUP3 DUP9 ADD PUSH3 0x119 JUMP JUMPDEST SWAP3 POP POP PUSH1 0x60 PUSH3 0x1AD DUP8 DUP3 DUP9 ADD PUSH3 0x130 JUMP JUMPDEST SWAP2 POP POP SWAP3 SWAP6 SWAP2 SWAP5 POP SWAP3 POP JUMP JUMPDEST PUSH1 0x0 PUSH3 0x1C6 DUP3 PUSH3 0x1D7 JUMP JUMPDEST SWAP1 POP SWAP2 SWAP1 POP JUMP JUMPDEST PUSH1 0x0 DUP2 SWAP1 POP SWAP2 SWAP1 POP JUMP JUMPDEST PUSH1 0x0 PUSH20 0xFFFFFFFFFFFFFFFFFFFFFFFFFFFFFFFFFFFFFFFF DUP3 AND SWAP1 POP SWAP2 SWAP1 POP JUMP JUMPDEST PUSH1 0x0 DUP2 SWAP1 POP SWAP2 SWAP1 POP JUMP JUMPDEST PUSH1 0x0 DUP1 REVERT JUMPDEST PUSH3 0x211 DUP2 PUSH3 0x1B9 JUMP JUMPDEST DUP2 EQ PUSH3 0x21D JUMPI PUSH1 0x0 DUP1 REVERT JUMPDEST POP JUMP JUMPDEST PUSH3 0x22B DUP2 PUSH3 0x1CD JUMP JUMPDEST DUP2 EQ PUSH3 0x237 JUMPI PUSH1 0x0 DUP1 REVERT JUMPDEST POP JUMP JUMPDEST PUSH3 0x245 DUP2 PUSH3 0x1F7 JUMP JUMPDEST DUP2 EQ PUSH3 0x251 JUMPI PUSH1 0x0 DUP1 REVERT JUMPDEST POP JUMP JUMPDEST PUSH1 0x80 MLOAD PUSH1 0x60 SHR PUSH1 0xA0 MLOAD PUSH1 0x60 SHR PUSH2 0x1FDF PUSH3 0x28E PUSH1 0x0 CODECOPY PUSH1 0x0 DUP2 DUP2 PUSH2 0x9E6 ADD MSTORE PUSH2 0xD76 ADD MSTORE PUSH1 0x0 DUP2 DUP2 PUSH2 0x4D7 ADD MSTORE PUSH2 0xD3A ADD MSTORE PUSH2 0x1FDF PUSH1 0x0 RETURN INVALID PUSH1 0x80 PUSH1 0x40 MSTORE PUSH1 0x4 CALLDATASIZE LT PUSH2 0x54 JUMPI PUSH1 0x0 CALLDATALOAD PUSH1 0xE0 SHR DUP1 PUSH3 0xC2943C EQ PUSH2 0x59 JUMPI DUP1 PUSH4 0x2F9AA1FE EQ PUSH2 0x82 JUMPI DUP1 PUSH4 0x845C9306 EQ PUSH2 0xAD JUMPI DUP1 PUSH4 0x92E845F6 EQ PUSH2 0xC9 JUMPI DUP1 PUSH4 0x94985DDD EQ PUSH2 0x106 JUMPI DUP1 PUSH4 0xFE35804E EQ PUSH2 0x12F JUMPI JUMPDEST PUSH1 0x0 DUP1 REVERT JUMPDEST CALLVALUE DUP1 ISZERO PUSH2 0x65 JUMPI PUSH1 0x0 DUP1 REVERT JUMPDEST POP PUSH2 0x80 PUSH1 0x4 DUP1 CALLDATASIZE SUB DUP2 ADD SWAP1 PUSH2 0x7B SWAP2 SWAP1 PUSH2 0x1311 JUMP JUMPDEST PUSH2 0x14B JUMP JUMPDEST STOP JUMPDEST CALLVALUE DUP1 ISZERO PUSH2 0x8E JUMPI PUSH1 0x0 DUP1 REVERT JUMPDEST POP PUSH2 0x97 PUSH2 0x628 JUMP JUMPDEST PUSH1 0x40 MLOAD PUSH2 0xA4 SWAP2 SWAP1 PUSH2 0x19A0 JUMP JUMPDEST PUSH1 0x40 MLOAD DUP1 SWAP2 SUB SWAP1 RETURN JUMPDEST PUSH2 0xC7 PUSH1 0x4 DUP1 CALLDATASIZE SUB DUP2 ADD SWAP1 PUSH2 0xC2 SWAP2 SWAP1 PUSH2 0x1311 JUMP JUMPDEST PUSH2 0x639 JUMP JUMPDEST STOP JUMPDEST CALLVALUE DUP1 ISZERO PUSH2 0xD5 JUMPI PUSH1 0x0 DUP1 REVERT JUMPDEST POP PUSH2 0xF0 PUSH1 0x4 DUP1 CALLDATASIZE SUB DUP2 ADD SWAP1 PUSH2 0xEB SWAP2 SWAP1 PUSH2 0x1311 JUMP JUMPDEST PUSH2 0x890 JUMP JUMPDEST PUSH1 0x40 MLOAD PUSH2 0xFD SWAP2 SWAP1 PUSH2 0x197E JUMP JUMPDEST PUSH1 0x40 MLOAD DUP1 SWAP2 SUB SWAP1 RETURN JUMPDEST CALLVALUE DUP1 ISZERO PUSH2 0x112 JUMPI PUSH1 0x0 DUP1 REVERT JUMPDEST POP PUSH2 0x12D PUSH1 0x4 DUP1 CALLDATASIZE SUB DUP2 ADD SWAP1 PUSH2 0x128 SWAP2 SWAP1 PUSH2 0x12D1 JUMP JUMPDEST PUSH2 0x9E4 JUMP JUMPDEST STOP JUMPDEST PUSH2 0x149 PUSH1 0x4 DUP1 CALLDATASIZE SUB DUP2 ADD SWAP1 PUSH2 0x144 SWAP2 SWAP1 PUSH2 0x136B JUMP JUMPDEST PUSH2 0xA80 JUMP JUMPDEST STOP JUMPDEST PUSH1 0x8 PUSH1 0x0 SWAP1 SLOAD SWAP1 PUSH2 0x100 EXP SWAP1 DIV PUSH20 0xFFFFFFFFFFFFFFFFFFFFFFFFFFFFFFFFFFFFFFFF AND PUSH20 0xFFFFFFFFFFFFFFFFFFFFFFFFFFFFFFFFFFFFFFFF AND CALLER PUSH20 0xFFFFFFFFFFFFFFFFFFFFFFFFFFFFFFFFFFFFFFFF AND EQ PUSH2 0x1DB JUMPI PUSH1 0x40 MLOAD PUSH32 0x8C379A000000000000000000000000000000000000000000000000000000000 DUP2 MSTORE PUSH1 0x4 ADD PUSH2 0x1D2 SWAP1 PUSH2 0x195E JUMP JUMPDEST PUSH1 0x40 MLOAD DUP1 SWAP2 SUB SWAP1 REVERT JUMPDEST PUSH1 0x0 PUSH1 0x2 PUSH1 0x0 DUP4 DUP2 MSTORE PUSH1 0x20 ADD SWAP1 DUP2 MSTORE PUSH1 0x20 ADD PUSH1 0x0 KECCAK256 SWAP1 POP DUP1 PUSH1 0x5 ADD SLOAD TIMESTAMP GT PUSH2 0x238 JUMPI PUSH1 0x40 MLOAD PUSH32 0x8C379A000000000000000000000000000000000000000000000000000000000 DUP2 MSTORE PUSH1 0x4 ADD PUSH2 0x22F SWAP1 PUSH2 0x18DE JUMP JUMPDEST PUSH1 0x40 MLOAD DUP1 SWAP2 SUB SWAP1 REVERT JUMPDEST DUP1 PUSH1 0x4 ADD PUSH1 0x14 SWAP1 SLOAD SWAP1 PUSH2 0x100 EXP SWAP1 DIV PUSH1 0xFF AND ISZERO PUSH2 0x28A JUMPI PUSH1 0x40 MLOAD PUSH32 0x8C379A000000000000000000000000000000000000000000000000000000000 DUP2 MSTORE PUSH1 0x4 ADD PUSH2 0x281 SWAP1 PUSH2 0x183E JUMP JUMPDEST PUSH1 0x40 MLOAD DUP1 SWAP2 SUB SWAP1 REVERT JUMPDEST PUSH1 0x1 PUSH1 0x5 PUSH1 0x0 DUP5 DUP2 MSTORE PUSH1 0x20 ADD SWAP1 DUP2 MSTORE PUSH1 0x20 ADD PUSH1 0x0 KECCAK256 SLOAD EQ ISZERO PUSH2 0x4D2 JUMPI PUSH1 0x0 PUSH20 0xFFFFFFFFFFFFFFFFFFFFFFFFFFFFFFFFFFFFFFFF AND DUP2 PUSH1 0x1 ADD PUSH1 0x0 DUP2 SLOAD DUP2 LT PUSH2 0x2D5 JUMPI PUSH2 0x2D4 PUSH2 0x1CBB JUMP JUMPDEST JUMPDEST SWAP1 PUSH1 0x0 MSTORE PUSH1 0x20 PUSH1 0x0 KECCAK256 ADD PUSH1 0x0 SWAP1 SLOAD SWAP1 PUSH2 0x100 EXP SWAP1 DIV PUSH20 0xFFFFFFFFFFFFFFFFFFFFFFFFFFFFFFFFFFFFFFFF AND PUSH20 0xFFFFFFFFFFFFFFFFFFFFFFFFFFFFFFFFFFFFFFFF AND EQ ISZERO PUSH2 0x357 JUMPI PUSH1 0x40 MLOAD PUSH32 0x8C379A000000000000000000000000000000000000000000000000000000000 DUP2 MSTORE PUSH1 0x4 ADD PUSH2 0x34E SWAP1 PUSH2 0x189E JUMP JUMPDEST PUSH1 0x40 MLOAD DUP1 SWAP2 SUB SWAP1 REVERT JUMPDEST DUP1 PUSH1 0x1 ADD PUSH1 0x0 DUP2 SLOAD DUP2 LT PUSH2 0x36E JUMPI PUSH2 0x36D PUSH2 0x1CBB JUMP JUMPDEST JUMPDEST SWAP1 PUSH1 0x0 MSTORE PUSH1 0x20 PUSH1 0x0 KECCAK256 ADD PUSH1 0x0 SWAP1 SLOAD SWAP1 PUSH2 0x100 EXP SWAP1 DIV PUSH20 0xFFFFFFFFFFFFFFFFFFFFFFFFFFFFFFFFFFFFFFFF AND DUP2 PUSH1 0x4 ADD PUSH1 0x0 PUSH2 0x100 EXP DUP2 SLOAD DUP2 PUSH20 0xFFFFFFFFFFFFFFFFFFFFFFFFFFFFFFFFFFFFFFFF MUL NOT AND SWAP1 DUP4 PUSH20 0xFFFFFFFFFFFFFFFFFFFFFFFFFFFFFFFFFFFFFFFF AND MUL OR SWAP1 SSTORE POP PUSH1 0x1 DUP2 PUSH1 0x4 ADD PUSH1 0x14 PUSH2 0x100 EXP DUP2 SLOAD DUP2 PUSH1 0xFF MUL NOT AND SWAP1 DUP4 ISZERO ISZERO MUL OR SWAP1 SSTORE POP PUSH1 0x0 DUP2 PUSH1 0x4 ADD PUSH1 0x0 SWAP1 SLOAD SWAP1 PUSH2 0x100 EXP SWAP1 DIV PUSH20 0xFFFFFFFFFFFFFFFFFFFFFFFFFFFFFFFFFFFFFFFF AND PUSH20 0xFFFFFFFFFFFFFFFFFFFFFFFFFFFFFFFFFFFFFFFF AND DUP3 PUSH1 0x3 ADD SLOAD PUSH1 0x40 MLOAD PUSH2 0x446 SWAP1 PUSH2 0x172B JUMP JUMPDEST PUSH1 0x0 PUSH1 0x40 MLOAD DUP1 DUP4 SUB DUP2 DUP6 DUP8 GAS CALL SWAP3 POP POP POP RETURNDATASIZE DUP1 PUSH1 0x0 DUP2 EQ PUSH2 0x483 JUMPI PUSH1 0x40 MLOAD SWAP2 POP PUSH1 0x1F NOT PUSH1 0x3F RETURNDATASIZE ADD AND DUP3 ADD PUSH1 0x40 MSTORE RETURNDATASIZE DUP3 MSTORE RETURNDATASIZE PUSH1 0x0 PUSH1 0x20 DUP5 ADD RETURNDATACOPY PUSH2 0x488 JUMP JUMPDEST PUSH1 0x60 SWAP2 POP JUMPDEST POP POP SWAP1 POP DUP1 PUSH2 0x4CC JUMPI PUSH1 0x40 MLOAD PUSH32 0x8C379A000000000000000000000000000000000000000000000000000000000 DUP2 MSTORE PUSH1 0x4 ADD PUSH2 0x4C3 SWAP1 PUSH2 0x185E JUMP JUMPDEST PUSH1 0x40 MLOAD DUP1 SWAP2 SUB SWAP1 REVERT JUMPDEST POP PUSH2 0x624 JUMP JUMPDEST PUSH1 0x7 SLOAD PUSH32 0x0 PUSH20 0xFFFFFFFFFFFFFFFFFFFFFFFFFFFFFFFFFFFFFFFF AND PUSH4 0x70A08231 ADDRESS PUSH1 0x40 MLOAD DUP3 PUSH4 0xFFFFFFFF AND PUSH1 0xE0 SHL DUP2 MSTORE PUSH1 0x4 ADD PUSH2 0x52E SWAP2 SWAP1 PUSH2 0x1740 JUMP JUMPDEST PUSH1 0x20 PUSH1 0x40 MLOAD DUP1 DUP4 SUB DUP2 DUP7 DUP1 EXTCODESIZE ISZERO DUP1 ISZERO PUSH2 0x546 JUMPI PUSH1 0x0 DUP1 REVERT JUMPDEST POP GAS STATICCALL ISZERO DUP1 ISZERO PUSH2 0x55A JUMPI RETURNDATASIZE PUSH1 0x0 DUP1 RETURNDATACOPY RETURNDATASIZE PUSH1 0x0 REVERT JUMPDEST POP POP POP POP PUSH1 0x40 MLOAD RETURNDATASIZE PUSH1 0x1F NOT PUSH1 0x1F DUP3 ADD AND DUP3 ADD DUP1 PUSH1 0x40 MSTORE POP DUP2 ADD SWAP1 PUSH2 0x57E SWAP2 SWAP1 PUSH2 0x133E JUMP JUMPDEST LT ISZERO PUSH2 0x5BF JUMPI PUSH1 0x40 MLOAD PUSH32 0x8C379A000000000000000000000000000000000000000000000000000000000 DUP2 MSTORE PUSH1 0x4 ADD PUSH2 0x5B6 SWAP1 PUSH2 0x18BE JUMP JUMPDEST PUSH1 0x40 MLOAD DUP1 SWAP2 SUB SWAP1 REVERT JUMPDEST PUSH1 0x0 PUSH2 0x5CF PUSH1 0x6 SLOAD PUSH1 0x7 SLOAD PUSH2 0xD36 JUMP JUMPDEST SWAP1 POP DUP3 PUSH1 0x3 PUSH1 0x0 DUP4 DUP2 MSTORE PUSH1 0x20 ADD SWAP1 DUP2 MSTORE PUSH1 0x20 ADD PUSH1 0x0 KECCAK256 DUP2 SWAP1 SSTORE POP PUSH32 0x49CDAA45E000EB9A419AE3B028F7F7BEC2179153EBE33293F312866428421326 DUP2 DUP5 PUSH1 0x40 MLOAD PUSH2 0x61A SWAP3 SWAP2 SWAP1 PUSH2 0x1799 JUMP JUMPDEST PUSH1 0x40 MLOAD DUP1 SWAP2 SUB SWAP1 LOG1 POP JUMPDEST POP POP JUMP JUMPDEST PUSH1 0x0 PUSH2 0x634 PUSH1 0x1 PUSH2 0xE95 JUMP JUMPDEST SWAP1 POP SWAP1 JUMP JUMPDEST PUSH1 0x0 PUSH1 0x2 PUSH1 0x0 DUP4 DUP2 MSTORE PUSH1 0x20 ADD SWAP1 DUP2 MSTORE PUSH1 0x20 ADD PUSH1 0x0 KECCAK256 SWAP1 POP DUP1 PUSH1 0x5 ADD SLOAD TIMESTAMP LT PUSH2 0x696 JUMPI PUSH1 0x40 MLOAD PUSH32 0x8C379A000000000000000000000000000000000000000000000000000000000 DUP2 MSTORE PUSH1 0x4 ADD PUSH2 0x68D SWAP1 PUSH2 0x191E JUMP JUMPDEST PUSH1 0x40 MLOAD DUP1 SWAP2 SUB SWAP1 REVERT JUMPDEST CALLVALUE DUP2 PUSH1 0x2 ADD SLOAD EQ PUSH2 0x6DC JUMPI PUSH1 0x40 MLOAD PUSH32 0x8C379A000000000000000000000000000000000000000000000000000000000 DUP2 MSTORE PUSH1 0x4 ADD PUSH2 0x6D3 SWAP1 PUSH2 0x18FE JUMP JUMPDEST PUSH1 0x40 MLOAD DUP1 SWAP2 SUB SWAP1 REVERT JUMPDEST DUP1 PUSH1 0x1 ADD CALLER SWAP1 DUP1 PUSH1 0x1 DUP2 SLOAD ADD DUP1 DUP3 SSTORE DUP1 SWAP2 POP POP PUSH1 0x1 SWAP1 SUB SWAP1 PUSH1 0x0 MSTORE PUSH1 0x20 PUSH1 0x0 KECCAK256 ADD PUSH1 0x0 SWAP1 SWAP2 SWAP1 SWAP2 SWAP1 SWAP2 PUSH2 0x100 EXP DUP2 SLOAD DUP2 PUSH20 0xFFFFFFFFFFFFFFFFFFFFFFFFFFFFFFFFFFFFFFFF MUL NOT AND SWAP1 DUP4 PUSH20 0xFFFFFFFFFFFFFFFFFFFFFFFFFFFFFFFFFFFFFFFF AND MUL OR SWAP1 SSTORE POP CALLVALUE DUP2 PUSH1 0x3 ADD PUSH1 0x0 DUP3 DUP3 SLOAD PUSH2 0x755 SWAP2 SWAP1 PUSH2 0x1A9A JUMP JUMPDEST SWAP3 POP POP DUP2 SWAP1 SSTORE POP PUSH1 0x0 PUSH1 0x4 PUSH1 0x0 DUP5 DUP2 MSTORE PUSH1 0x20 ADD SWAP1 DUP2 MSTORE PUSH1 0x20 ADD PUSH1 0x0 KECCAK256 PUSH1 0x0 CALLER PUSH20 0xFFFFFFFFFFFFFFFFFFFFFFFFFFFFFFFFFFFFFFFF AND PUSH20 0xFFFFFFFFFFFFFFFFFFFFFFFFFFFFFFFFFFFFFFFF AND DUP2 MSTORE PUSH1 0x20 ADD SWAP1 DUP2 MSTORE PUSH1 0x20 ADD PUSH1 0x0 KECCAK256 SLOAD SWAP1 POP PUSH1 0x0 DUP2 EQ ISZERO PUSH2 0x7E4 JUMPI PUSH1 0x5 PUSH1 0x0 DUP5 DUP2 MSTORE PUSH1 0x20 ADD SWAP1 DUP2 MSTORE PUSH1 0x20 ADD PUSH1 0x0 KECCAK256 PUSH1 0x0 DUP2 SLOAD DUP1 SWAP3 SWAP2 SWAP1 PUSH2 0x7DE SWAP1 PUSH2 0x1BCF JUMP JUMPDEST SWAP2 SWAP1 POP SSTORE POP JUMPDEST PUSH1 0x4 PUSH1 0x0 DUP5 DUP2 MSTORE PUSH1 0x20 ADD SWAP1 DUP2 MSTORE PUSH1 0x20 ADD PUSH1 0x0 KECCAK256 PUSH1 0x0 CALLER PUSH20 0xFFFFFFFFFFFFFFFFFFFFFFFFFFFFFFFFFFFFFFFF AND PUSH20 0xFFFFFFFFFFFFFFFFFFFFFFFFFFFFFFFFFFFFFFFF AND DUP2 MSTORE PUSH1 0x20 ADD SWAP1 DUP2 MSTORE PUSH1 0x20 ADD PUSH1 0x0 KECCAK256 PUSH1 0x0 DUP2 SLOAD DUP1 SWAP3 SWAP2 SWAP1 PUSH2 0x845 SWAP1 PUSH2 0x1BCF JUMP JUMPDEST SWAP2 SWAP1 POP SSTORE POP PUSH32 0x3460C8D6FB8C7C026376232C36402D8F009C3BACAFE6FF1F69DFCE59FA9C0967 DUP3 PUSH1 0x0 ADD SLOAD DUP4 PUSH1 0x3 ADD SLOAD PUSH1 0x40 MLOAD PUSH2 0x883 SWAP3 SWAP2 SWAP1 PUSH2 0x19BB JUMP JUMPDEST PUSH1 0x40 MLOAD DUP1 SWAP2 SUB SWAP1 LOG1 POP POP POP JUMP JUMPDEST PUSH2 0x898 PUSH2 0x1154 JUMP JUMPDEST PUSH1 0x2 PUSH1 0x0 DUP4 DUP2 MSTORE PUSH1 0x20 ADD SWAP1 DUP2 MSTORE PUSH1 0x20 ADD PUSH1 0x0 KECCAK256 PUSH1 0x40 MLOAD DUP1 PUSH1 0xE0 ADD PUSH1 0x40 MSTORE SWAP1 DUP2 PUSH1 0x0 DUP3 ADD SLOAD DUP2 MSTORE PUSH1 0x20 ADD PUSH1 0x1 DUP3 ADD DUP1 SLOAD DUP1 PUSH1 0x20 MUL PUSH1 0x20 ADD PUSH1 0x40 MLOAD SWAP1 DUP2 ADD PUSH1 0x40 MSTORE DUP1 SWAP3 SWAP2 SWAP1 DUP2 DUP2 MSTORE PUSH1 0x20 ADD DUP3 DUP1 SLOAD DUP1 ISZERO PUSH2 0x945 JUMPI PUSH1 0x20 MUL DUP3 ADD SWAP2 SWAP1 PUSH1 0x0 MSTORE PUSH1 0x20 PUSH1 0x0 KECCAK256 SWAP1 JUMPDEST DUP2 PUSH1 0x0 SWAP1 SLOAD SWAP1 PUSH2 0x100 EXP SWAP1 DIV PUSH20 0xFFFFFFFFFFFFFFFFFFFFFFFFFFFFFFFFFFFFFFFF AND PUSH20 0xFFFFFFFFFFFFFFFFFFFFFFFFFFFFFFFFFFFFFFFF AND DUP2 MSTORE PUSH1 0x20 ADD SWAP1 PUSH1 0x1 ADD SWAP1 DUP1 DUP4 GT PUSH2 0x8FB JUMPI JUMPDEST POP POP POP POP POP DUP2 MSTORE PUSH1 0x20 ADD PUSH1 0x2 DUP3 ADD SLOAD DUP2 MSTORE PUSH1 0x20 ADD PUSH1 0x3 DUP3 ADD SLOAD DUP2 MSTORE PUSH1 0x20 ADD PUSH1 0x4 DUP3 ADD PUSH1 0x0 SWAP1 SLOAD SWAP1 PUSH2 0x100 EXP SWAP1 DIV PUSH20 0xFFFFFFFFFFFFFFFFFFFFFFFFFFFFFFFFFFFFFFFF AND PUSH20 0xFFFFFFFFFFFFFFFFFFFFFFFFFFFFFFFFFFFFFFFF AND PUSH20 0xFFFFFFFFFFFFFFFFFFFFFFFFFFFFFFFFFFFFFFFF AND DUP2 MSTORE PUSH1 0x20 ADD PUSH1 0x4 DUP3 ADD PUSH1 0x14 SWAP1 SLOAD SWAP1 PUSH2 0x100 EXP SWAP1 DIV PUSH1 0xFF AND ISZERO ISZERO ISZERO ISZERO DUP2 MSTORE PUSH1 0x20 ADD PUSH1 0x5 DUP3 ADD SLOAD DUP2 MSTORE POP POP SWAP1 POP SWAP2 SWAP1 POP JUMP JUMPDEST PUSH32 0x0 PUSH20 0xFFFFFFFFFFFFFFFFFFFFFFFFFFFFFFFFFFFFFFFF AND CALLER PUSH20 0xFFFFFFFFFFFFFFFFFFFFFFFFFFFFFFFFFFFFFFFF AND EQ PUSH2 0xA72 JUMPI PUSH1 0x40 MLOAD PUSH32 0x8C379A000000000000000000000000000000000000000000000000000000000 DUP2 MSTORE PUSH1 0x4 ADD PUSH2 0xA69 SWAP1 PUSH2 0x193E JUMP JUMPDEST PUSH1 0x40 MLOAD DUP1 SWAP2 SUB SWAP1 REVERT JUMPDEST PUSH2 0xA7C DUP3 DUP3 PUSH2 0xEA3 JUMP JUMPDEST POP POP JUMP JUMPDEST PUSH1 0x8 PUSH1 0x0 SWAP1 SLOAD SWAP1 PUSH2 0x100 EXP SWAP1 DIV PUSH20 0xFFFFFFFFFFFFFFFFFFFFFFFFFFFFFFFFFFFFFFFF AND PUSH20 0xFFFFFFFFFFFFFFFFFFFFFFFFFFFFFFFFFFFFFFFF AND CALLER PUSH20 0xFFFFFFFFFFFFFFFFFFFFFFFFFFFFFFFFFFFFFFFF AND EQ PUSH2 0xB10 JUMPI PUSH1 0x40 MLOAD PUSH32 0x8C379A000000000000000000000000000000000000000000000000000000000 DUP2 MSTORE PUSH1 0x4 ADD PUSH2 0xB07 SWAP1 PUSH2 0x195E JUMP JUMPDEST PUSH1 0x40 MLOAD DUP1 SWAP2 SUB SWAP1 REVERT JUMPDEST PUSH1 0x0 DUP3 GT PUSH2 0xB53 JUMPI PUSH1 0x40 MLOAD PUSH32 0x8C379A000000000000000000000000000000000000000000000000000000000 DUP2 MSTORE PUSH1 0x4 ADD PUSH2 0xB4A SWAP1 PUSH2 0x187E JUMP JUMPDEST PUSH1 0x40 MLOAD DUP1 SWAP2 SUB SWAP1 REVERT JUMPDEST PUSH1 0x0 PUSH1 0x40 MLOAD DUP1 PUSH1 0xE0 ADD PUSH1 0x40 MSTORE DUP1 PUSH2 0xB6A PUSH1 0x1 PUSH2 0xE95 JUMP JUMPDEST DUP2 MSTORE PUSH1 0x20 ADD PUSH1 0x0 PUSH8 0xFFFFFFFFFFFFFFFF DUP2 GT ISZERO PUSH2 0xB8A JUMPI PUSH2 0xB89 PUSH2 0x1CEA JUMP JUMPDEST JUMPDEST PUSH1 0x40 MLOAD SWAP1 DUP1 DUP3 MSTORE DUP1 PUSH1 0x20 MUL PUSH1 0x20 ADD DUP3 ADD PUSH1 0x40 MSTORE DUP1 ISZERO PUSH2 0xBB8 JUMPI DUP2 PUSH1 0x20 ADD PUSH1 0x20 DUP3 MUL DUP1 CALLDATASIZE DUP4 CALLDATACOPY DUP1 DUP3 ADD SWAP2 POP POP SWAP1 POP JUMPDEST POP DUP2 MSTORE PUSH1 0x20 ADD DUP5 DUP2 MSTORE PUSH1 0x20 ADD PUSH1 0x0 DUP2 MSTORE PUSH1 0x20 ADD PUSH1 0x0 PUSH20 0xFFFFFFFFFFFFFFFFFFFFFFFFFFFFFFFFFFFFFFFF AND DUP2 MSTORE PUSH1 0x20 ADD PUSH1 0x0 ISZERO ISZERO DUP2 MSTORE PUSH1 0x20 ADD PUSH1 0x1 DUP5 PUSH2 0xBFE SWAP2 SWAP1 PUSH2 0x1AF0 JUMP JUMPDEST TIMESTAMP PUSH2 0xC09 SWAP2 SWAP1 PUSH2 0x1A9A JUMP JUMPDEST DUP2 MSTORE POP SWAP1 POP DUP1 PUSH1 0x2 PUSH1 0x0 PUSH2 0xC1D PUSH1 0x1 PUSH2 0xE95 JUMP JUMPDEST DUP2 MSTORE PUSH1 0x20 ADD SWAP1 DUP2 MSTORE PUSH1 0x20 ADD PUSH1 0x0 KECCAK256 PUSH1 0x0 DUP3 ADD MLOAD DUP2 PUSH1 0x0 ADD SSTORE PUSH1 0x20 DUP3 ADD MLOAD DUP2 PUSH1 0x1 ADD SWAP1 DUP1 MLOAD SWAP1 PUSH1 0x20 ADD SWAP1 PUSH2 0xC51 SWAP3 SWAP2 SWAP1 PUSH2 0x11A9 JUMP JUMPDEST POP PUSH1 0x40 DUP3 ADD MLOAD DUP2 PUSH1 0x2 ADD SSTORE PUSH1 0x60 DUP3 ADD MLOAD DUP2 PUSH1 0x3 ADD SSTORE PUSH1 0x80 DUP3 ADD MLOAD DUP2 PUSH1 0x4 ADD PUSH1 0x0 PUSH2 0x100 EXP DUP2 SLOAD DUP2 PUSH20 0xFFFFFFFFFFFFFFFFFFFFFFFFFFFFFFFFFFFFFFFF MUL NOT AND SWAP1 DUP4 PUSH20 0xFFFFFFFFFFFFFFFFFFFFFFFFFFFFFFFFFFFFFFFF AND MUL OR SWAP1 SSTORE POP PUSH1 0xA0 DUP3 ADD MLOAD DUP2 PUSH1 0x4 ADD PUSH1 0x14 PUSH2 0x100 EXP DUP2 SLOAD DUP2 PUSH1 0xFF MUL NOT AND SWAP1 DUP4 ISZERO ISZERO MUL OR SWAP1 SSTORE POP PUSH1 0xC0 DUP3 ADD MLOAD DUP2 PUSH1 0x5 ADD SSTORE SWAP1 POP POP PUSH2 0xCE4 PUSH1 0x1 PUSH2 0x10B9 JUMP JUMPDEST PUSH32 0x68B3CC7239912B7F66B9E2F9D93955382D1082297C9E6347BEB37217F081650E DUP2 PUSH1 0x0 ADD MLOAD DUP3 PUSH1 0x40 ADD MLOAD DUP4 PUSH1 0x60 ADD MLOAD DUP5 PUSH1 0xC0 ADD MLOAD PUSH1 0x40 MLOAD PUSH2 0xD29 SWAP5 SWAP4 SWAP3 SWAP2 SWAP1 PUSH2 0x19E4 JUMP JUMPDEST PUSH1 0x40 MLOAD DUP1 SWAP2 SUB SWAP1 LOG1 POP POP POP JUMP JUMPDEST PUSH1 0x0 PUSH32 0x0 PUSH20 0xFFFFFFFFFFFFFFFFFFFFFFFFFFFFFFFFFFFFFFFF AND PUSH4 0x4000AEA0 PUSH32 0x0 DUP5 DUP7 PUSH1 0x0 PUSH1 0x40 MLOAD PUSH1 0x20 ADD PUSH2 0xDAA SWAP3 SWAP2 SWAP1 PUSH2 0x1799 JUMP JUMPDEST PUSH1 0x40 MLOAD PUSH1 0x20 DUP2 DUP4 SUB SUB DUP2 MSTORE SWAP1 PUSH1 0x40 MSTORE PUSH1 0x40 MLOAD DUP5 PUSH4 0xFFFFFFFF AND PUSH1 0xE0 SHL DUP2 MSTORE PUSH1 0x4 ADD PUSH2 0xDD7 SWAP4 SWAP3 SWAP2 SWAP1 PUSH2 0x175B JUMP JUMPDEST PUSH1 0x20 PUSH1 0x40 MLOAD DUP1 DUP4 SUB DUP2 PUSH1 0x0 DUP8 DUP1 EXTCODESIZE ISZERO DUP1 ISZERO PUSH2 0xDF1 JUMPI PUSH1 0x0 DUP1 REVERT JUMPDEST POP GAS CALL ISZERO DUP1 ISZERO PUSH2 0xE05 JUMPI RETURNDATASIZE PUSH1 0x0 DUP1 RETURNDATACOPY RETURNDATASIZE PUSH1 0x0 REVERT JUMPDEST POP POP POP POP PUSH1 0x40 MLOAD RETURNDATASIZE PUSH1 0x1F NOT PUSH1 0x1F DUP3 ADD AND DUP3 ADD DUP1 PUSH1 0x40 MSTORE POP DUP2 ADD SWAP1 PUSH2 0xE29 SWAP2 SWAP1 PUSH2 0x12A4 JUMP JUMPDEST POP PUSH1 0x0 PUSH2 0xE4B DUP5 PUSH1 0x0 ADDRESS PUSH1 0x0 DUP1 DUP10 DUP2 MSTORE PUSH1 0x20 ADD SWAP1 DUP2 MSTORE PUSH1 0x20 ADD PUSH1 0x0 KECCAK256 SLOAD PUSH2 0x10CF JUMP JUMPDEST SWAP1 POP PUSH1 0x1 PUSH1 0x0 DUP1 DUP7 DUP2 MSTORE PUSH1 0x20 ADD SWAP1 DUP2 MSTORE PUSH1 0x20 ADD PUSH1 0x0 KECCAK256 SLOAD PUSH2 0xE6C SWAP2 SWAP1 PUSH2 0x1A9A JUMP JUMPDEST PUSH1 0x0 DUP1 DUP7 DUP2 MSTORE PUSH1 0x20 ADD SWAP1 DUP2 MSTORE PUSH1 0x20 ADD PUSH1 0x0 KECCAK256 DUP2 SWAP1 SSTORE POP PUSH2 0xE8C DUP5 DUP3 PUSH2 0x110B JUMP JUMPDEST SWAP2 POP POP SWAP3 SWAP2 POP POP JUMP JUMPDEST PUSH1 0x0 DUP2 PUSH1 0x0 ADD SLOAD SWAP1 POP SWAP2 SWAP1 POP JUMP JUMPDEST PUSH1 0x0 PUSH1 0x3 PUSH1 0x0 DUP5 DUP2 MSTORE PUSH1 0x20 ADD SWAP1 DUP2 MSTORE PUSH1 0x20 ADD PUSH1 0x0 KECCAK256 SLOAD SWAP1 POP PUSH1 0x0 PUSH1 0x2 PUSH1 0x0 DUP4 DUP2 MSTORE PUSH1 0x20 ADD SWAP1 DUP2 MSTORE PUSH1 0x20 ADD PUSH1 0x0 KECCAK256 SWAP1 POP PUSH1 0x0 PUSH2 0xEEE DUP3 PUSH1 0x1 ADD DUP1 SLOAD SWAP1 POP DUP6 PUSH2 0x113E SWAP1 SWAP2 SWAP1 PUSH4 0xFFFFFFFF AND JUMP JUMPDEST SWAP1 POP PUSH1 0x1 DUP3 PUSH1 0x4 ADD PUSH1 0x14 PUSH2 0x100 EXP DUP2 SLOAD DUP2 PUSH1 0xFF MUL NOT AND SWAP1 DUP4 ISZERO ISZERO MUL OR SWAP1 SSTORE POP DUP2 PUSH1 0x1 ADD DUP2 DUP2 SLOAD DUP2 LT PUSH2 0xF23 JUMPI PUSH2 0xF22 PUSH2 0x1CBB JUMP JUMPDEST JUMPDEST SWAP1 PUSH1 0x0 MSTORE PUSH1 0x20 PUSH1 0x0 KECCAK256 ADD PUSH1 0x0 SWAP1 SLOAD SWAP1 PUSH2 0x100 EXP SWAP1 DIV PUSH20 0xFFFFFFFFFFFFFFFFFFFFFFFFFFFFFFFFFFFFFFFF AND DUP3 PUSH1 0x4 ADD PUSH1 0x0 PUSH2 0x100 EXP DUP2 SLOAD DUP2 PUSH20 0xFFFFFFFFFFFFFFFFFFFFFFFFFFFFFFFFFFFFFFFF MUL NOT AND SWAP1 DUP4 PUSH20 0xFFFFFFFFFFFFFFFFFFFFFFFFFFFFFFFFFFFFFFFF AND MUL OR SWAP1 SSTORE POP PUSH1 0x3 PUSH1 0x0 DUP7 DUP2 MSTORE PUSH1 0x20 ADD SWAP1 DUP2 MSTORE PUSH1 0x20 ADD PUSH1 0x0 KECCAK256 PUSH1 0x0 SWAP1 SSTORE PUSH1 0x5 PUSH1 0x0 DUP5 DUP2 MSTORE PUSH1 0x20 ADD SWAP1 DUP2 MSTORE PUSH1 0x20 ADD PUSH1 0x0 KECCAK256 PUSH1 0x0 SWAP1 SSTORE DUP2 PUSH1 0x4 ADD PUSH1 0x0 SWAP1 SLOAD SWAP1 PUSH2 0x100 EXP SWAP1 DIV PUSH20 0xFFFFFFFFFFFFFFFFFFFFFFFFFFFFFFFFFFFFFFFF AND PUSH20 0xFFFFFFFFFFFFFFFFFFFFFFFFFFFFFFFFFFFFFFFF AND DUP3 PUSH1 0x3 ADD SLOAD PUSH1 0x40 MLOAD PUSH2 0x100A SWAP1 PUSH2 0x172B JUMP JUMPDEST PUSH1 0x0 PUSH1 0x40 MLOAD DUP1 DUP4 SUB DUP2 DUP6 DUP8 GAS CALL SWAP3 POP POP POP RETURNDATASIZE DUP1 PUSH1 0x0 DUP2 EQ PUSH2 0x1047 JUMPI PUSH1 0x40 MLOAD SWAP2 POP PUSH1 0x1F NOT PUSH1 0x3F RETURNDATASIZE ADD AND DUP3 ADD PUSH1 0x40 MSTORE RETURNDATASIZE DUP3 MSTORE RETURNDATASIZE PUSH1 0x0 PUSH1 0x20 DUP5 ADD RETURNDATACOPY PUSH2 0x104C JUMP JUMPDEST PUSH1 0x60 SWAP2 POP JUMPDEST POP POP POP PUSH32 0xDE0C090C9D4A201B2D76010AF69467E968AB380B646781FA3C78EC193892A1F9 DUP6 DUP4 PUSH1 0x0 ADD SLOAD DUP5 PUSH1 0x4 ADD PUSH1 0x0 SWAP1 SLOAD SWAP1 PUSH2 0x100 EXP SWAP1 DIV PUSH20 0xFFFFFFFFFFFFFFFFFFFFFFFFFFFFFFFFFFFFFFFF AND PUSH1 0x40 MLOAD PUSH2 0x10AA SWAP4 SWAP3 SWAP2 SWAP1 PUSH2 0x17C2 JUMP JUMPDEST PUSH1 0x40 MLOAD DUP1 SWAP2 SUB SWAP1 LOG1 POP POP POP POP POP JUMP JUMPDEST PUSH1 0x1 DUP2 PUSH1 0x0 ADD PUSH1 0x0 DUP3 DUP3 SLOAD ADD SWAP3 POP POP DUP2 SWAP1 SSTORE POP POP JUMP JUMPDEST PUSH1 0x0 DUP5 DUP5 DUP5 DUP5 PUSH1 0x40 MLOAD PUSH1 0x20 ADD PUSH2 0x10E8 SWAP5 SWAP4 SWAP3 SWAP2 SWAP1 PUSH2 0x17F9 JUMP JUMPDEST PUSH1 0x40 MLOAD PUSH1 0x20 DUP2 DUP4 SUB SUB DUP2 MSTORE SWAP1 PUSH1 0x40 MSTORE DUP1 MLOAD SWAP1 PUSH1 0x20 ADD KECCAK256 PUSH1 0x0 SHR SWAP1 POP SWAP5 SWAP4 POP POP POP POP JUMP JUMPDEST PUSH1 0x0 DUP3 DUP3 PUSH1 0x40 MLOAD PUSH1 0x20 ADD PUSH2 0x1120 SWAP3 SWAP2 SWAP1 PUSH2 0x16FF JUMP JUMPDEST PUSH1 0x40 MLOAD PUSH1 0x20 DUP2 DUP4 SUB SUB DUP2 MSTORE SWAP1 PUSH1 0x40 MSTORE DUP1 MLOAD SWAP1 PUSH1 0x20 ADD KECCAK256 SWAP1 POP SWAP3 SWAP2 POP POP JUMP JUMPDEST PUSH1 0x0 DUP2 DUP4 PUSH2 0x114C SWAP2 SWAP1 PUSH2 0x1C2C JUMP JUMPDEST SWAP1 POP SWAP3 SWAP2 POP POP JUMP JUMPDEST PUSH1 0x40 MLOAD DUP1 PUSH1 0xE0 ADD PUSH1 0x40 MSTORE DUP1 PUSH1 0x0 DUP2 MSTORE PUSH1 0x20 ADD PUSH1 0x60 DUP2 MSTORE PUSH1 0x20 ADD PUSH1 0x0 DUP2 MSTORE PUSH1 0x20 ADD PUSH1 0x0 DUP2 MSTORE PUSH1 0x20 ADD PUSH1 0x0 PUSH20 0xFFFFFFFFFFFFFFFFFFFFFFFFFFFFFFFFFFFFFFFF AND DUP2 MSTORE PUSH1 0x20 ADD PUSH1 0x0 ISZERO ISZERO DUP2 MSTORE PUSH1 0x20 ADD PUSH1 0x0 DUP2 MSTORE POP SWAP1 JUMP JUMPDEST DUP3 DUP1 SLOAD DUP3 DUP3 SSTORE SWAP1 PUSH1 0x0 MSTORE PUSH1 0x20 PUSH1 0x0 KECCAK256 SWAP1 DUP2 ADD SWAP3 DUP3 ISZERO PUSH2 0x1222 JUMPI SWAP2 PUSH1 0x20 MUL DUP3 ADD JUMPDEST DUP3 DUP2 GT ISZERO PUSH2 0x1221 JUMPI DUP3 MLOAD DUP3 PUSH1 0x0 PUSH2 0x100 EXP DUP2 SLOAD DUP2 PUSH20 0xFFFFFFFFFFFFFFFFFFFFFFFFFFFFFFFFFFFFFFFF MUL NOT AND SWAP1 DUP4 PUSH20 0xFFFFFFFFFFFFFFFFFFFFFFFFFFFFFFFFFFFFFFFF AND MUL OR SWAP1 SSTORE POP SWAP2 PUSH1 0x20 ADD SWAP2 SWAP1 PUSH1 0x1 ADD SWAP1 PUSH2 0x11C9 JUMP JUMPDEST JUMPDEST POP SWAP1 POP PUSH2 0x122F SWAP2 SWAP1 PUSH2 0x1233 JUMP JUMPDEST POP SWAP1 JUMP JUMPDEST JUMPDEST DUP1 DUP3 GT ISZERO PUSH2 0x124C JUMPI PUSH1 0x0 DUP2 PUSH1 0x0 SWAP1 SSTORE POP PUSH1 0x1 ADD PUSH2 0x1234 JUMP JUMPDEST POP SWAP1 JUMP JUMPDEST PUSH1 0x0 DUP2 MLOAD SWAP1 POP PUSH2 0x125F DUP2 PUSH2 0x1F64 JUMP JUMPDEST SWAP3 SWAP2 POP POP JUMP JUMPDEST PUSH1 0x0 DUP2 CALLDATALOAD SWAP1 POP PUSH2 0x1274 DUP2 PUSH2 0x1F7B JUMP JUMPDEST SWAP3 SWAP2 POP POP JUMP JUMPDEST PUSH1 0x0 DUP2 CALLDATALOAD SWAP1 POP PUSH2 0x1289 DUP2 PUSH2 0x1F92 JUMP JUMPDEST SWAP3 SWAP2 POP POP JUMP JUMPDEST PUSH1 0x0 DUP2 MLOAD SWAP1 POP PUSH2 0x129E DUP2 PUSH2 0x1F92 JUMP JUMPDEST SWAP3 SWAP2 POP POP JUMP JUMPDEST PUSH1 0x0 PUSH1 0x20 DUP3 DUP5 SUB SLT ISZERO PUSH2 0x12BA JUMPI PUSH2 0x12B9 PUSH2 0x1D19 JUMP JUMPDEST JUMPDEST PUSH1 0x0 PUSH2 0x12C8 DUP5 DUP3 DUP6 ADD PUSH2 0x1250 JUMP JUMPDEST SWAP2 POP POP SWAP3 SWAP2 POP POP JUMP JUMPDEST PUSH1 0x0 DUP1 PUSH1 0x40 DUP4 DUP6 SUB SLT ISZERO PUSH2 0x12E8 JUMPI PUSH2 0x12E7 PUSH2 0x1D19 JUMP JUMPDEST JUMPDEST PUSH1 0x0 PUSH2 0x12F6 DUP6 DUP3 DUP7 ADD PUSH2 0x1265 JUMP JUMPDEST SWAP3 POP POP PUSH1 0x20 PUSH2 0x1307 DUP6 DUP3 DUP7 ADD PUSH2 0x127A JUMP JUMPDEST SWAP2 POP POP SWAP3 POP SWAP3 SWAP1 POP JUMP JUMPDEST PUSH1 0x0 PUSH1 0x20 DUP3 DUP5 SUB SLT ISZERO PUSH2 0x1327 JUMPI PUSH2 0x1326 PUSH2 0x1D19 JUMP JUMPDEST JUMPDEST PUSH1 0x0 PUSH2 0x1335 DUP5 DUP3 DUP6 ADD PUSH2 0x127A JUMP JUMPDEST SWAP2 POP POP SWAP3 SWAP2 POP POP JUMP JUMPDEST PUSH1 0x0 PUSH1 0x20 DUP3 DUP5 SUB SLT ISZERO PUSH2 0x1354 JUMPI PUSH2 0x1353 PUSH2 0x1D19 JUMP JUMPDEST JUMPDEST PUSH1 0x0 PUSH2 0x1362 DUP5 DUP3 DUP6 ADD PUSH2 0x128F JUMP JUMPDEST SWAP2 POP POP SWAP3 SWAP2 POP POP JUMP JUMPDEST PUSH1 0x0 DUP1 PUSH1 0x40 DUP4 DUP6 SUB SLT ISZERO PUSH2 0x1382 JUMPI PUSH2 0x1381 PUSH2 0x1D19 JUMP JUMPDEST JUMPDEST PUSH1 0x0 PUSH2 0x1390 DUP6 DUP3 DUP7 ADD PUSH2 0x127A JUMP JUMPDEST SWAP3 POP POP PUSH1 0x20 PUSH2 0x13A1 DUP6 DUP3 DUP7 ADD PUSH2 0x127A JUMP JUMPDEST SWAP2 POP POP SWAP3 POP SWAP3 SWAP1 POP JUMP JUMPDEST PUSH1 0x0 PUSH2 0x13B7 DUP4 DUP4 PUSH2 0x13C3 JUMP JUMPDEST PUSH1 0x20 DUP4 ADD SWAP1 POP SWAP3 SWAP2 POP POP JUMP JUMPDEST PUSH2 0x13CC DUP2 PUSH2 0x1B4A JUMP JUMPDEST DUP3 MSTORE POP POP JUMP JUMPDEST PUSH2 0x13DB DUP2 PUSH2 0x1B4A JUMP JUMPDEST DUP3 MSTORE POP POP JUMP JUMPDEST PUSH1 0x0 PUSH2 0x13EC DUP3 PUSH2 0x1A39 JUMP JUMPDEST PUSH2 0x13F6 DUP2 DUP6 PUSH2 0x1A5C JUMP JUMPDEST SWAP4 POP PUSH2 0x1401 DUP4 PUSH2 0x1A29 JUMP JUMPDEST DUP1 PUSH1 0x0 JUMPDEST DUP4 DUP2 LT ISZERO PUSH2 0x1432 JUMPI DUP2 MLOAD PUSH2 0x1419 DUP9 DUP3 PUSH2 0x13AB JUMP JUMPDEST SWAP8 POP PUSH2 0x1424 DUP4 PUSH2 0x1A4F JUMP JUMPDEST SWAP3 POP POP PUSH1 0x1 DUP2 ADD SWAP1 POP PUSH2 0x1405 JUMP JUMPDEST POP DUP6 SWAP4 POP POP POP POP SWAP3 SWAP2 POP POP JUMP JUMPDEST PUSH2 0x1448 DUP2 PUSH2 0x1B5C JUMP JUMPDEST DUP3 MSTORE POP POP JUMP JUMPDEST PUSH2 0x1457 DUP2 PUSH2 0x1B68 JUMP JUMPDEST DUP3 MSTORE POP POP JUMP JUMPDEST PUSH2 0x146E PUSH2 0x1469 DUP3 PUSH2 0x1B68 JUMP JUMPDEST PUSH2 0x1C18 JUMP JUMPDEST DUP3 MSTORE POP POP JUMP JUMPDEST PUSH1 0x0 PUSH2 0x147F DUP3 PUSH2 0x1A44 JUMP JUMPDEST PUSH2 0x1489 DUP2 DUP6 PUSH2 0x1A6D JUMP JUMPDEST SWAP4 POP PUSH2 0x1499 DUP2 DUP6 PUSH1 0x20 DUP7 ADD PUSH2 0x1B9C JUMP JUMPDEST PUSH2 0x14A2 DUP2 PUSH2 0x1D1E JUMP JUMPDEST DUP5 ADD SWAP2 POP POP SWAP3 SWAP2 POP POP JUMP JUMPDEST PUSH1 0x0 PUSH2 0x14BA PUSH1 0x25 DUP4 PUSH2 0x1A89 JUMP JUMPDEST SWAP2 POP PUSH2 0x14C5 DUP3 PUSH2 0x1D2F JUMP JUMPDEST PUSH1 0x40 DUP3 ADD SWAP1 POP SWAP2 SWAP1 POP JUMP JUMPDEST PUSH1 0x0 PUSH2 0x14DD PUSH1 0xF DUP4 PUSH2 0x1A89 JUMP JUMPDEST SWAP2 POP PUSH2 0x14E8 DUP3 PUSH2 0x1D7E JUMP JUMPDEST PUSH1 0x20 DUP3 ADD SWAP1 POP SWAP2 SWAP1 POP JUMP JUMPDEST PUSH1 0x0 PUSH2 0x1500 PUSH1 0x1C DUP4 PUSH2 0x1A89 JUMP JUMPDEST SWAP2 POP PUSH2 0x150B DUP3 PUSH2 0x1DA7 JUMP JUMPDEST PUSH1 0x20 DUP3 ADD SWAP1 POP SWAP2 SWAP1 POP JUMP JUMPDEST PUSH1 0x0 PUSH2 0x1523 PUSH1 0x2F DUP4 PUSH2 0x1A89 JUMP JUMPDEST SWAP2 POP PUSH2 0x152E DUP3 PUSH2 0x1DD0 JUMP JUMPDEST PUSH1 0x40 DUP3 ADD SWAP1 POP SWAP2 SWAP1 POP JUMP JUMPDEST PUSH1 0x0 PUSH2 0x1546 PUSH1 0xF DUP4 PUSH2 0x1A89 JUMP JUMPDEST SWAP2 POP PUSH2 0x1551 DUP3 PUSH2 0x1E1F JUMP JUMPDEST PUSH1 0x20 DUP3 ADD SWAP1 POP SWAP2 SWAP1 POP JUMP JUMPDEST PUSH1 0x0 PUSH2 0x1569 PUSH1 0x17 DUP4 PUSH2 0x1A89 JUMP JUMPDEST SWAP2 POP PUSH2 0x1574 DUP3 PUSH2 0x1E48 JUMP JUMPDEST PUSH1 0x20 DUP3 ADD SWAP1 POP SWAP2 SWAP1 POP JUMP JUMPDEST PUSH1 0x0 PUSH2 0x158C PUSH1 0x23 DUP4 PUSH2 0x1A89 JUMP JUMPDEST SWAP2 POP PUSH2 0x1597 DUP3 PUSH2 0x1E71 JUMP JUMPDEST PUSH1 0x40 DUP3 ADD SWAP1 POP SWAP2 SWAP1 POP JUMP JUMPDEST PUSH1 0x0 PUSH2 0x15AF PUSH1 0x1F DUP4 PUSH2 0x1A89 JUMP JUMPDEST SWAP2 POP PUSH2 0x15BA DUP3 PUSH2 0x1EC0 JUMP JUMPDEST PUSH1 0x20 DUP3 ADD SWAP1 POP SWAP2 SWAP1 POP JUMP JUMPDEST PUSH1 0x0 PUSH2 0x15D2 PUSH1 0x1F DUP4 PUSH2 0x1A89 JUMP JUMPDEST SWAP2 POP PUSH2 0x15DD DUP3 PUSH2 0x1EE9 JUMP JUMPDEST PUSH1 0x20 DUP3 ADD SWAP1 POP SWAP2 SWAP1 POP JUMP JUMPDEST PUSH1 0x0 PUSH2 0x15F5 PUSH1 0x0 DUP4 PUSH2 0x1A7E JUMP JUMPDEST SWAP2 POP PUSH2 0x1600 DUP3 PUSH2 0x1F12 JUMP JUMPDEST PUSH1 0x0 DUP3 ADD SWAP1 POP SWAP2 SWAP1 POP JUMP JUMPDEST PUSH1 0x0 PUSH2 0x1618 PUSH1 0x21 DUP4 PUSH2 0x1A89 JUMP JUMPDEST SWAP2 POP PUSH2 0x1623 DUP3 PUSH2 0x1F15 JUMP JUMPDEST PUSH1 0x40 DUP3 ADD SWAP1 POP SWAP2 SWAP1 POP JUMP JUMPDEST PUSH1 0x0 PUSH1 0xE0 DUP4 ADD PUSH1 0x0 DUP4 ADD MLOAD PUSH2 0x1646 PUSH1 0x0 DUP7 ADD DUP3 PUSH2 0x16CA JUMP JUMPDEST POP PUSH1 0x20 DUP4 ADD MLOAD DUP5 DUP3 SUB PUSH1 0x20 DUP7 ADD MSTORE PUSH2 0x165E DUP3 DUP3 PUSH2 0x13E1 JUMP JUMPDEST SWAP2 POP POP PUSH1 0x40 DUP4 ADD MLOAD PUSH2 0x1673 PUSH1 0x40 DUP7 ADD DUP3 PUSH2 0x16CA JUMP JUMPDEST POP PUSH1 0x60 DUP4 ADD MLOAD PUSH2 0x1686 PUSH1 0x60 DUP7 ADD DUP3 PUSH2 0x16CA JUMP JUMPDEST POP PUSH1 0x80 DUP4 ADD MLOAD PUSH2 0x1699 PUSH1 0x80 DUP7 ADD DUP3 PUSH2 0x13C3 JUMP JUMPDEST POP PUSH1 0xA0 DUP4 ADD MLOAD PUSH2 0x16AC PUSH1 0xA0 DUP7 ADD DUP3 PUSH2 0x143F JUMP JUMPDEST POP PUSH1 0xC0 DUP4 ADD MLOAD PUSH2 0x16BF PUSH1 0xC0 DUP7 ADD DUP3 PUSH2 0x16CA JUMP JUMPDEST POP DUP1 SWAP2 POP POP SWAP3 SWAP2 POP POP JUMP JUMPDEST PUSH2 0x16D3 DUP2 PUSH2 0x1B92 JUMP JUMPDEST DUP3 MSTORE POP POP JUMP JUMPDEST PUSH2 0x16E2 DUP2 PUSH2 0x1B92 JUMP JUMPDEST DUP3 MSTORE POP POP JUMP JUMPDEST PUSH2 0x16F9 PUSH2 0x16F4 DUP3 PUSH2 0x1B92 JUMP JUMPDEST PUSH2 0x1C22 JUMP JUMPDEST DUP3 MSTORE POP POP JUMP JUMPDEST PUSH1 0x0 PUSH2 0x170B DUP3 DUP6 PUSH2 0x145D JUMP JUMPDEST PUSH1 0x20 DUP3 ADD SWAP2 POP PUSH2 0x171B DUP3 DUP5 PUSH2 0x16E8 JUMP JUMPDEST PUSH1 0x20 DUP3 ADD SWAP2 POP DUP2 SWAP1 POP SWAP4 SWAP3 POP POP POP JUMP JUMPDEST PUSH1 0x0 PUSH2 0x1736 DUP3 PUSH2 0x15E8 JUMP JUMPDEST SWAP2 POP DUP2 SWAP1 POP SWAP2 SWAP1 POP JUMP JUMPDEST PUSH1 0x0 PUSH1 0x20 DUP3 ADD SWAP1 POP PUSH2 0x1755 PUSH1 0x0 DUP4 ADD DUP5 PUSH2 0x13D2 JUMP JUMPDEST SWAP3 SWAP2 POP POP JUMP JUMPDEST PUSH1 0x0 PUSH1 0x60 DUP3 ADD SWAP1 POP PUSH2 0x1770 PUSH1 0x0 DUP4 ADD DUP7 PUSH2 0x13D2 JUMP JUMPDEST PUSH2 0x177D PUSH1 0x20 DUP4 ADD DUP6 PUSH2 0x16D9 JUMP JUMPDEST DUP2 DUP2 SUB PUSH1 0x40 DUP4 ADD MSTORE PUSH2 0x178F DUP2 DUP5 PUSH2 0x1474 JUMP JUMPDEST SWAP1 POP SWAP5 SWAP4 POP POP POP POP JUMP JUMPDEST PUSH1 0x0 PUSH1 0x40 DUP3 ADD SWAP1 POP PUSH2 0x17AE PUSH1 0x0 DUP4 ADD DUP6 PUSH2 0x144E JUMP JUMPDEST PUSH2 0x17BB PUSH1 0x20 DUP4 ADD DUP5 PUSH2 0x16D9 JUMP JUMPDEST SWAP4 SWAP3 POP POP POP JUMP JUMPDEST PUSH1 0x0 PUSH1 0x60 DUP3 ADD SWAP1 POP PUSH2 0x17D7 PUSH1 0x0 DUP4 ADD DUP7 PUSH2 0x144E JUMP JUMPDEST PUSH2 0x17E4 PUSH1 0x20 DUP4 ADD DUP6 PUSH2 0x16D9 JUMP JUMPDEST PUSH2 0x17F1 PUSH1 0x40 DUP4 ADD DUP5 PUSH2 0x13D2 JUMP JUMPDEST SWAP5 SWAP4 POP POP POP POP JUMP JUMPDEST PUSH1 0x0 PUSH1 0x80 DUP3 ADD SWAP1 POP PUSH2 0x180E PUSH1 0x0 DUP4 ADD DUP8 PUSH2 0x144E JUMP JUMPDEST PUSH2 0x181B PUSH1 0x20 DUP4 ADD DUP7 PUSH2 0x16D9 JUMP JUMPDEST PUSH2 0x1828 PUSH1 0x40 DUP4 ADD DUP6 PUSH2 0x13D2 JUMP JUMPDEST PUSH2 0x1835 PUSH1 0x60 DUP4 ADD DUP5 PUSH2 0x16D9 JUMP JUMPDEST SWAP6 SWAP5 POP POP POP POP POP JUMP JUMPDEST PUSH1 0x0 PUSH1 0x20 DUP3 ADD SWAP1 POP DUP2 DUP2 SUB PUSH1 0x0 DUP4 ADD MSTORE PUSH2 0x1857 DUP2 PUSH2 0x14AD JUMP JUMPDEST SWAP1 POP SWAP2 SWAP1 POP JUMP JUMPDEST PUSH1 0x0 PUSH1 0x20 DUP3 ADD SWAP1 POP DUP2 DUP2 SUB PUSH1 0x0 DUP4 ADD MSTORE PUSH2 0x1877 DUP2 PUSH2 0x14D0 JUMP JUMPDEST SWAP1 POP SWAP2 SWAP1 POP JUMP JUMPDEST PUSH1 0x0 PUSH1 0x20 DUP3 ADD SWAP1 POP DUP2 DUP2 SUB PUSH1 0x0 DUP4 ADD MSTORE PUSH2 0x1897 DUP2 PUSH2 0x14F3 JUMP JUMPDEST SWAP1 POP SWAP2 SWAP1 POP JUMP JUMPDEST PUSH1 0x0 PUSH1 0x20 DUP3 ADD SWAP1 POP DUP2 DUP2 SUB PUSH1 0x0 DUP4 ADD MSTORE PUSH2 0x18B7 DUP2 PUSH2 0x1516 JUMP JUMPDEST SWAP1 POP SWAP2 SWAP1 POP JUMP JUMPDEST PUSH1 0x0 PUSH1 0x20 DUP3 ADD SWAP1 POP DUP2 DUP2 SUB PUSH1 0x0 DUP4 ADD MSTORE PUSH2 0x18D7 DUP2 PUSH2 0x1539 JUMP JUMPDEST SWAP1 POP SWAP2 SWAP1 POP JUMP JUMPDEST PUSH1 0x0 PUSH1 0x20 DUP3 ADD SWAP1 POP DUP2 DUP2 SUB PUSH1 0x0 DUP4 ADD MSTORE PUSH2 0x18F7 DUP2 PUSH2 0x155C JUMP JUMPDEST SWAP1 POP SWAP2 SWAP1 POP JUMP JUMPDEST PUSH1 0x0 PUSH1 0x20 DUP3 ADD SWAP1 POP DUP2 DUP2 SUB PUSH1 0x0 DUP4 ADD MSTORE PUSH2 0x1917 DUP2 PUSH2 0x157F JUMP JUMPDEST SWAP1 POP SWAP2 SWAP1 POP JUMP JUMPDEST PUSH1 0x0 PUSH1 0x20 DUP3 ADD SWAP1 POP DUP2 DUP2 SUB PUSH1 0x0 DUP4 ADD MSTORE PUSH2 0x1937 DUP2 PUSH2 0x15A2 JUMP JUMPDEST SWAP1 POP SWAP2 SWAP1 POP JUMP JUMPDEST PUSH1 0x0 PUSH1 0x20 DUP3 ADD SWAP1 POP DUP2 DUP2 SUB PUSH1 0x0 DUP4 ADD MSTORE PUSH2 0x1957 DUP2 PUSH2 0x15C5 JUMP JUMPDEST SWAP1 POP SWAP2 SWAP1 POP JUMP JUMPDEST PUSH1 0x0 PUSH1 0x20 DUP3 ADD SWAP1 POP DUP2 DUP2 SUB PUSH1 0x0 DUP4 ADD MSTORE PUSH2 0x1977 DUP2 PUSH2 0x160B JUMP JUMPDEST SWAP1 POP SWAP2 SWAP1 POP JUMP JUMPDEST PUSH1 0x0 PUSH1 0x20 DUP3 ADD SWAP1 POP DUP2 DUP2 SUB PUSH1 0x0 DUP4 ADD MSTORE PUSH2 0x1998 DUP2 DUP5 PUSH2 0x162E JUMP JUMPDEST SWAP1 POP SWAP3 SWAP2 POP POP JUMP JUMPDEST PUSH1 0x0 PUSH1 0x20 DUP3 ADD SWAP1 POP PUSH2 0x19B5 PUSH1 0x0 DUP4 ADD DUP5 PUSH2 0x16D9 JUMP JUMPDEST SWAP3 SWAP2 POP POP JUMP JUMPDEST PUSH1 0x0 PUSH1 0x40 DUP3 ADD SWAP1 POP PUSH2 0x19D0 PUSH1 0x0 DUP4 ADD DUP6 PUSH2 0x16D9 JUMP JUMPDEST PUSH2 0x19DD PUSH1 0x20 DUP4 ADD DUP5 PUSH2 0x16D9 JUMP JUMPDEST SWAP4 SWAP3 POP POP POP JUMP JUMPDEST PUSH1 0x0 PUSH1 0x80 DUP3 ADD SWAP1 POP PUSH2 0x19F9 PUSH1 0x0 DUP4 ADD DUP8 PUSH2 0x16D9 JUMP JUMPDEST PUSH2 0x1A06 PUSH1 0x20 DUP4 ADD DUP7 PUSH2 0x16D9 JUMP JUMPDEST PUSH2 0x1A13 PUSH1 0x40 DUP4 ADD DUP6 PUSH2 0x16D9 JUMP JUMPDEST PUSH2 0x1A20 PUSH1 0x60 DUP4 ADD DUP5 PUSH2 0x16D9 JUMP JUMPDEST SWAP6 SWAP5 POP POP POP POP POP JUMP JUMPDEST PUSH1 0x0 DUP2 SWAP1 POP PUSH1 0x20 DUP3 ADD SWAP1 POP SWAP2 SWAP1 POP JUMP JUMPDEST PUSH1 0x0 DUP2 MLOAD SWAP1 POP SWAP2 SWAP1 POP JUMP JUMPDEST PUSH1 0x0 DUP2 MLOAD SWAP1 POP SWAP2 SWAP1 POP JUMP JUMPDEST PUSH1 0x0 PUSH1 0x20 DUP3 ADD SWAP1 POP SWAP2 SWAP1 POP JUMP JUMPDEST PUSH1 0x0 DUP3 DUP3 MSTORE PUSH1 0x20 DUP3 ADD SWAP1 POP SWAP3 SWAP2 POP POP JUMP JUMPDEST PUSH1 0x0 DUP3 DUP3 MSTORE PUSH1 0x20 DUP3 ADD SWAP1 POP SWAP3 SWAP2 POP POP JUMP JUMPDEST PUSH1 0x0 DUP2 SWAP1 POP SWAP3 SWAP2 POP POP JUMP JUMPDEST PUSH1 0x0 DUP3 DUP3 MSTORE PUSH1 0x20 DUP3 ADD SWAP1 POP SWAP3 SWAP2 POP POP JUMP JUMPDEST PUSH1 0x0 PUSH2 0x1AA5 DUP3 PUSH2 0x1B92 JUMP JUMPDEST SWAP2 POP PUSH2 0x1AB0 DUP4 PUSH2 0x1B92 JUMP JUMPDEST SWAP3 POP DUP3 PUSH32 0xFFFFFFFFFFFFFFFFFFFFFFFFFFFFFFFFFFFFFFFFFFFFFFFFFFFFFFFFFFFFFFFF SUB DUP3 GT ISZERO PUSH2 0x1AE5 JUMPI PUSH2 0x1AE4 PUSH2 0x1C5D JUMP JUMPDEST JUMPDEST DUP3 DUP3 ADD SWAP1 POP SWAP3 SWAP2 POP POP JUMP JUMPDEST PUSH1 0x0 PUSH2 0x1AFB DUP3 PUSH2 0x1B92 JUMP JUMPDEST SWAP2 POP PUSH2 0x1B06 DUP4 PUSH2 0x1B92 JUMP JUMPDEST SWAP3 POP DUP2 PUSH32 0xFFFFFFFFFFFFFFFFFFFFFFFFFFFFFFFFFFFFFFFFFFFFFFFFFFFFFFFFFFFFFFFF DIV DUP4 GT DUP3 ISZERO ISZERO AND ISZERO PUSH2 0x1B3F JUMPI PUSH2 0x1B3E PUSH2 0x1C5D JUMP JUMPDEST JUMPDEST DUP3 DUP3 MUL SWAP1 POP SWAP3 SWAP2 POP POP JUMP JUMPDEST PUSH1 0x0 PUSH2 0x1B55 DUP3 PUSH2 0x1B72 JUMP JUMPDEST SWAP1 POP SWAP2 SWAP1 POP JUMP JUMPDEST PUSH1 0x0 DUP2 ISZERO ISZERO SWAP1 POP SWAP2 SWAP1 POP JUMP JUMPDEST PUSH1 0x0 DUP2 SWAP1 POP SWAP2 SWAP1 POP JUMP JUMPDEST PUSH1 0x0 PUSH20 0xFFFFFFFFFFFFFFFFFFFFFFFFFFFFFFFFFFFFFFFF DUP3 AND SWAP1 POP SWAP2 SWAP1 POP JUMP JUMPDEST PUSH1 0x0 DUP2 SWAP1 POP SWAP2 SWAP1 POP JUMP JUMPDEST PUSH1 0x0 JUMPDEST DUP4 DUP2 LT ISZERO PUSH2 0x1BBA JUMPI DUP1 DUP3 ADD MLOAD DUP2 DUP5 ADD MSTORE PUSH1 0x20 DUP2 ADD SWAP1 POP PUSH2 0x1B9F JUMP JUMPDEST DUP4 DUP2 GT ISZERO PUSH2 0x1BC9 JUMPI PUSH1 0x0 DUP5 DUP5 ADD MSTORE JUMPDEST POP POP POP POP JUMP JUMPDEST PUSH1 0x0 PUSH2 0x1BDA DUP3 PUSH2 0x1B92 JUMP JUMPDEST SWAP2 POP PUSH32 0xFFFFFFFFFFFFFFFFFFFFFFFFFFFFFFFFFFFFFFFFFFFFFFFFFFFFFFFFFFFFFFFF DUP3 EQ ISZERO PUSH2 0x1C0D JUMPI PUSH2 0x1C0C PUSH2 0x1C5D JUMP JUMPDEST JUMPDEST PUSH1 0x1 DUP3 ADD SWAP1 POP SWAP2 SWAP1 POP JUMP JUMPDEST PUSH1 0x0 DUP2 SWAP1 POP SWAP2 SWAP1 POP JUMP JUMPDEST PUSH1 0x0 DUP2 SWAP1 POP SWAP2 SWAP1 POP JUMP JUMPDEST PUSH1 0x0 PUSH2 0x1C37 DUP3 PUSH2 0x1B92 JUMP JUMPDEST SWAP2 POP PUSH2 0x1C42 DUP4 PUSH2 0x1B92 JUMP JUMPDEST SWAP3 POP DUP3 PUSH2 0x1C52 JUMPI PUSH2 0x1C51 PUSH2 0x1C8C JUMP JUMPDEST JUMPDEST DUP3 DUP3 MOD SWAP1 POP SWAP3 SWAP2 POP POP JUMP JUMPDEST PUSH32 0x4E487B7100000000000000000000000000000000000000000000000000000000 PUSH1 0x0 MSTORE PUSH1 0x11 PUSH1 0x4 MSTORE PUSH1 0x24 PUSH1 0x0 REVERT JUMPDEST PUSH32 0x4E487B7100000000000000000000000000000000000000000000000000000000 PUSH1 0x0 MSTORE PUSH1 0x12 PUSH1 0x4 MSTORE PUSH1 0x24 PUSH1 0x0 REVERT JUMPDEST PUSH32 0x4E487B7100000000000000000000000000000000000000000000000000000000 PUSH1 0x0 MSTORE PUSH1 0x32 PUSH1 0x4 MSTORE PUSH1 0x24 PUSH1 0x0 REVERT JUMPDEST PUSH32 0x4E487B7100000000000000000000000000000000000000000000000000000000 PUSH1 0x0 MSTORE PUSH1 0x41 PUSH1 0x4 MSTORE PUSH1 0x24 PUSH1 0x0 REVERT JUMPDEST PUSH1 0x0 DUP1 REVERT JUMPDEST PUSH1 0x0 PUSH1 0x1F NOT PUSH1 0x1F DUP4 ADD AND SWAP1 POP SWAP2 SWAP1 POP JUMP JUMPDEST PUSH32 0x4C6F74746572792068617320616C7265616479206465636C6172656420612077 PUSH1 0x0 DUP3 ADD MSTORE PUSH32 0x696E6E6572000000000000000000000000000000000000000000000000000000 PUSH1 0x20 DUP3 ADD MSTORE POP JUMP JUMPDEST PUSH32 0x5472616E73666572206661696C65640000000000000000000000000000000000 PUSH1 0x0 DUP3 ADD MSTORE POP JUMP JUMPDEST PUSH32 0x56616C7565206D7573742062652067726561746572207468616E203000000000 PUSH1 0x0 DUP3 ADD MSTORE POP JUMP JUMPDEST PUSH32 0x546865726520686173206265656E206E6F2070617274696369706174696F6E20 PUSH1 0x0 DUP3 ADD MSTORE PUSH32 0x696E2074686973206C6F74746572790000000000000000000000000000000000 PUSH1 0x20 DUP3 ADD MSTORE POP JUMP JUMPDEST PUSH32 0x4E6F7420656E6F756768204C494E4B0000000000000000000000000000000000 PUSH1 0x0 DUP3 ADD MSTORE POP JUMP JUMPDEST PUSH32 0x4C6F7474657279206973207374696C6C20616374697665000000000000000000 PUSH1 0x0 DUP3 ADD MSTORE POP JUMP JUMPDEST PUSH32 0x56616C7565206D75737420626520657175616C20746F207469636B6574207072 PUSH1 0x0 DUP3 ADD MSTORE PUSH32 0x6963650000000000000000000000000000000000000000000000000000000000 PUSH1 0x20 DUP3 ADD MSTORE POP JUMP JUMPDEST PUSH32 0x4C6F74746572792070617274696369706174696F6E20697320636C6F73656400 PUSH1 0x0 DUP3 ADD MSTORE POP JUMP JUMPDEST PUSH32 0x4F6E6C7920565246436F6F7264696E61746F722063616E2066756C66696C6C00 PUSH1 0x0 DUP3 ADD MSTORE POP JUMP JUMPDEST POP JUMP JUMPDEST PUSH32 0x4F6E6C792061646D696E2063616E2063616C6C20746869732066756E6374696F PUSH1 0x0 DUP3 ADD MSTORE PUSH32 0x6E00000000000000000000000000000000000000000000000000000000000000 PUSH1 0x20 DUP3 ADD MSTORE POP JUMP JUMPDEST PUSH2 0x1F6D DUP2 PUSH2 0x1B5C JUMP JUMPDEST DUP2 EQ PUSH2 0x1F78 JUMPI PUSH1 0x0 DUP1 REVERT JUMPDEST POP JUMP JUMPDEST PUSH2 0x1F84 DUP2 PUSH2 0x1B68 JUMP JUMPDEST DUP2 EQ PUSH2 0x1F8F JUMPI PUSH1 0x0 DUP1 REVERT JUMPDEST POP JUMP JUMPDEST PUSH2 0x1F9B DUP2 PUSH2 0x1B92 JUMP JUMPDEST DUP2 EQ PUSH2 0x1FA6 JUMPI PUSH1 0x0 DUP1 REVERT JUMPDEST POP JUMP INVALID LOG2 PUSH5 0x6970667358 0x22 SLT KECCAK256 0xF7 DUP15 CALLDATALOAD REVERT PC 0xDB NOT 0xCA DUP1 0xBA 0xCA PUSH3 0xA46992 0xD1 CALLER 0xB4 PUSH5 0x2A0999A8D0 PUSH11 0xB45852CF507A1564736F6C PUSH4 0x43000807 STOP CALLER "},"gasEstimates":{"creation":{"codeDepositCost":"1631800","executionCost":"infinite","totalCost":"infinite"},"external":{"createLottery(uint256,uint256)":"infinite","declareWinner(uint256)":"infinite","getLottery(uint256)":"infinite","getLotteryCount()":"2486","participate(uint256)":"infinite","rawFulfillRandomness(bytes32,uint256)":"infinite"},"internal":{"fulfillRandomness(bytes32,uint256)":"infinite"}},"methodIdentifiers":{"createLottery(uint256,uint256)":"fe35804e","declareWinner(uint256)":"00c2943c","getLottery(uint256)":"92e845f6","getLotteryCount()":"2f9aa1fe","participate(uint256)":"845c9306","rawFulfillRandomness(bytes32,uint256)":"94985ddd"}},"storageLayout":{"storage":[{"astId":79,"contract":"contracts/Lottery.sol:LotteryGame","label":"nonces","offset":0,"slot":"0","type":"t_mapping(t_bytes32,t_uint256)"},{"astId":669,"contract":"contracts/Lottery.sol:LotteryGame","label":"lotteryId","offset":0,"slot":"1","type":"t_struct(Counter)271_storage"},{"astId":674,"contract":"contracts/Lottery.sol:LotteryGame","label":"lotteries","offset":0,"slot":"2","type":"t_mapping(t_uint256,t_struct(Lottery)740_storage)"},{"astId":678,"contract":"contracts/Lottery.sol:LotteryGame","label":"lotteryRandomnessRequest","offset":0,"slot":"3","type":"t_mapping(t_bytes32,t_uint256)"},{"astId":684,"contract":"contracts/Lottery.sol:LotteryGame","label":"ppplayer","offset":0,"slot":"4","type":"t_mapping(t_uint256,t_mapping(t_address,t_uint256))"},{"astId":688,"contract":"contracts/Lottery.sol:LotteryGame","label":"playersCount","offset":0,"slot":"5","type":"t_mapping(t_uint256,t_uint256)"},{"astId":690,"contract":"contracts/Lottery.sol:LotteryGame","label":"keyHash","offset":0,"slot":"6","type":"t_bytes32"},{"astId":692,"contract":"contracts/Lottery.sol:LotteryGame","label":"fee","offset":0,"slot":"7","type":"t_uint256"},{"astId":694,"contract":"contracts/Lottery.sol:LotteryGame","label":"admin","offset":0,"slot":"8","type":"t_address"}],"types":{"t_address":{"encoding":"inplace","label":"address","numberOfBytes":"20"},"t_array(t_address)dyn_storage":{"base":"t_address","encoding":"dynamic_array","label":"address[]","numberOfBytes":"32"},"t_bool":{"encoding":"inplace","label":"bool","numberOfBytes":"1"},"t_bytes32":{"encoding":"inplace","label":"bytes32","numberOfBytes":"32"},"t_mapping(t_address,t_uint256)":{"encoding":"mapping","key":"t_address","label":"mapping(address => uint256)","numberOfBytes":"32","value":"t_uint256"},"t_mapping(t_bytes32,t_uint256)":{"encoding":"mapping","key":"t_bytes32","label":"mapping(bytes32 => uint256)","numberOfBytes":"32","value":"t_uint256"},"t_mapping(t_uint256,t_mapping(t_address,t_uint256))":{"encoding":"mapping","key":"t_uint256","label":"mapping(uint256 => mapping(address => uint256))","numberOfBytes":"32","value":"t_mapping(t_address,t_uint256)"},"t_mapping(t_uint256,t_struct(Lottery)740_storage)":{"encoding":"mapping","key":"t_uint256","label":"mapping(uint256 => struct LotteryGame.Lottery)","numberOfBytes":"32","value":"t_struct(Lottery)740_storage"},"t_mapping(t_uint256,t_uint256)":{"encoding":"mapping","key":"t_uint256","label":"mapping(uint256 => uint256)","numberOfBytes":"32","value":"t_uint256"},"t_struct(Counter)271_storage":{"encoding":"inplace","label":"struct Counters.Counter","members":[{"astId":270,"contract":"contracts/Lottery.sol:LotteryGame","label":"_value","offset":0,"slot":"0","type":"t_uint256"}],"numberOfBytes":"32"},"t_struct(Lottery)740_storage":{"encoding":"inplace","label":"struct LotteryGame.Lottery","members":[{"astId":726,"contract":"contracts/Lottery.sol:LotteryGame","label":"lotteryId","offset":0,"slot":"0","type":"t_uint256"},{"astId":729,"contract":"contracts/Lottery.sol:LotteryGame","label":"participants","offset":0,"slot":"1","type":"t_array(t_address)dyn_storage"},{"astId":731,"contract":"contracts/Lottery.sol:LotteryGame","label":"ticketPrice","offset":0,"slot":"2","type":"t_uint256"},{"astId":733,"contract":"contracts/Lottery.sol:LotteryGame","label":"prize","offset":0,"slot":"3","type":"t_uint256"},{"astId":735,"contract":"contracts/Lottery.sol:LotteryGame","label":"winner","offset":0,"slot":"4","type":"t_address"},{"astId":737,"contract":"contracts/Lottery.sol:LotteryGame","label":"isFinished","offset":20,"slot":"4","type":"t_bool"},{"astId":739,"contract":"contracts/Lottery.sol:LotteryGame","label":"endDate","offset":0,"slot":"5","type":"t_uint256"}],"numberOfBytes":"192"},"t_uint256":{"encoding":"inplace","label":"uint256","numberOfBytes":"32"}}},"userdoc":{"kind":"user","methods":{},"version":1}}}}